{
  "_format": "hh-sol-artifact-1",
  "contractName": "NFTLottery",
  "sourceName": "contracts/NFTLottery.sol",
  "abi": [
    {
      "inputs": [
        {
          "internalType": "uint256",
          "name": "_ticketPrice",
          "type": "uint256"
        }
      ],
      "stateMutability": "nonpayable",
      "type": "constructor"
    },
    {
      "anonymous": false,
      "inputs": [
        {
          "indexed": true,
          "internalType": "address",
          "name": "owner",
          "type": "address"
        },
        {
          "indexed": true,
          "internalType": "address",
          "name": "approved",
          "type": "address"
        },
        {
          "indexed": true,
          "internalType": "uint256",
          "name": "tokenId",
          "type": "uint256"
        }
      ],
      "name": "Approval",
      "type": "event"
    },
    {
      "anonymous": false,
      "inputs": [
        {
          "indexed": true,
          "internalType": "address",
          "name": "owner",
          "type": "address"
        },
        {
          "indexed": true,
          "internalType": "address",
          "name": "operator",
          "type": "address"
        },
        {
          "indexed": false,
          "internalType": "bool",
          "name": "approved",
          "type": "bool"
        }
      ],
      "name": "ApprovalForAll",
      "type": "event"
    },
    {
      "anonymous": false,
      "inputs": [
        {
          "indexed": true,
          "internalType": "uint256",
          "name": "lotteryId",
          "type": "uint256"
        },
        {
          "indexed": false,
          "internalType": "uint256",
          "name": "finalNumber",
          "type": "uint256"
        }
      ],
      "name": "LotteryNumberGenerated",
      "type": "event"
    },
    {
      "anonymous": false,
      "inputs": [
        {
          "indexed": false,
          "internalType": "uint256",
          "name": "lotteryID",
          "type": "uint256"
        },
        {
          "indexed": false,
          "internalType": "uint256",
          "name": "lotteryStartTime",
          "type": "uint256"
        },
        {
          "indexed": false,
          "internalType": "uint256",
          "name": "lotteryEndTime",
          "type": "uint256"
        }
      ],
      "name": "LotteryStarted",
      "type": "event"
    },
    {
      "anonymous": false,
      "inputs": [
        {
          "indexed": true,
          "internalType": "address",
          "name": "previousOwner",
          "type": "address"
        },
        {
          "indexed": true,
          "internalType": "address",
          "name": "newOwner",
          "type": "address"
        }
      ],
      "name": "OwnershipTransferred",
      "type": "event"
    },
    {
      "anonymous": false,
      "inputs": [
        {
          "indexed": true,
          "internalType": "address",
          "name": "buyer",
          "type": "address"
        },
        {
          "indexed": true,
          "internalType": "uint256",
          "name": "lotteryId",
          "type": "uint256"
        },
        {
          "indexed": false,
          "internalType": "uint256",
          "name": "numberTicket",
          "type": "uint256"
        }
      ],
      "name": "TicketsPurchase",
      "type": "event"
    },
    {
      "anonymous": false,
      "inputs": [
        {
          "indexed": true,
          "internalType": "address",
          "name": "from",
          "type": "address"
        },
        {
          "indexed": true,
          "internalType": "address",
          "name": "to",
          "type": "address"
        },
        {
          "indexed": true,
          "internalType": "uint256",
          "name": "tokenId",
          "type": "uint256"
        }
      ],
      "name": "Transfer",
      "type": "event"
    },
    {
      "anonymous": false,
      "inputs": [
        {
          "indexed": false,
          "internalType": "address",
          "name": "winner",
          "type": "address"
        },
        {
          "indexed": false,
          "internalType": "uint256",
          "name": "amount",
          "type": "uint256"
        }
      ],
      "name": "WinnersAwarded",
      "type": "event"
    },
    {
      "inputs": [
        {
          "internalType": "address",
          "name": "to",
          "type": "address"
        },
        {
          "internalType": "uint256",
          "name": "tokenId",
          "type": "uint256"
        }
      ],
      "name": "approve",
      "outputs": [],
      "stateMutability": "nonpayable",
      "type": "function"
    },
    {
      "inputs": [
        {
          "internalType": "address",
          "name": "owner",
          "type": "address"
        }
      ],
      "name": "balanceOf",
      "outputs": [
        {
          "internalType": "uint256",
          "name": "",
          "type": "uint256"
        }
      ],
      "stateMutability": "view",
      "type": "function"
    },
    {
      "inputs": [
        {
          "internalType": "uint256",
          "name": "_noOfTickets",
          "type": "uint256"
        }
      ],
      "name": "buyTicket",
      "outputs": [],
      "stateMutability": "payable",
      "type": "function"
    },
    {
      "inputs": [],
      "name": "checkConractFunds",
      "outputs": [
        {
          "internalType": "uint256",
          "name": "",
          "type": "uint256"
        }
      ],
      "stateMutability": "view",
      "type": "function"
    },
    {
      "inputs": [],
      "name": "checkTicketPrice",
      "outputs": [
        {
          "internalType": "uint256",
          "name": "",
          "type": "uint256"
        }
      ],
      "stateMutability": "view",
      "type": "function"
    },
    {
      "inputs": [],
      "name": "currentState",
      "outputs": [
        {
          "internalType": "enum NFTLottery.State",
          "name": "",
          "type": "uint8"
        }
      ],
      "stateMutability": "view",
      "type": "function"
    },
    {
      "inputs": [
        {
          "internalType": "uint256",
          "name": "tokenId",
          "type": "uint256"
        }
      ],
      "name": "getApproved",
      "outputs": [
        {
          "internalType": "address",
          "name": "",
          "type": "address"
        }
      ],
      "stateMutability": "view",
      "type": "function"
    },
    {
      "inputs": [],
      "name": "getLotteryID",
      "outputs": [
        {
          "internalType": "uint256",
          "name": "",
          "type": "uint256"
        }
      ],
      "stateMutability": "view",
      "type": "function"
    },
    {
      "inputs": [],
      "name": "getOperator",
      "outputs": [
        {
          "internalType": "address",
          "name": "",
          "type": "address"
        }
      ],
      "stateMutability": "view",
      "type": "function"
    },
    {
      "inputs": [],
      "name": "getWinningTickets",
      "outputs": [],
      "stateMutability": "nonpayable",
      "type": "function"
    },
    {
      "inputs": [
        {
          "internalType": "address",
          "name": "owner",
          "type": "address"
        },
        {
          "internalType": "address",
          "name": "operator",
          "type": "address"
        }
      ],
      "name": "isApprovedForAll",
      "outputs": [
        {
          "internalType": "bool",
          "name": "",
          "type": "bool"
        }
      ],
      "stateMutability": "view",
      "type": "function"
    },
    {
      "inputs": [],
      "name": "name",
      "outputs": [
        {
          "internalType": "string",
          "name": "",
          "type": "string"
        }
      ],
      "stateMutability": "view",
      "type": "function"
    },
    {
      "inputs": [],
      "name": "owner",
      "outputs": [
        {
          "internalType": "address",
          "name": "",
          "type": "address"
        }
      ],
      "stateMutability": "view",
      "type": "function"
    },
    {
      "inputs": [
        {
          "internalType": "uint256",
          "name": "tokenId",
          "type": "uint256"
        }
      ],
      "name": "ownerOf",
      "outputs": [
        {
          "internalType": "address",
          "name": "",
          "type": "address"
        }
      ],
      "stateMutability": "view",
      "type": "function"
    },
    {
      "inputs": [],
      "name": "payoutWinner",
      "outputs": [],
      "stateMutability": "nonpayable",
      "type": "function"
    },
    {
      "inputs": [],
      "name": "renounceOwnership",
      "outputs": [],
      "stateMutability": "nonpayable",
      "type": "function"
    },
    {
      "inputs": [
        {
          "internalType": "address",
          "name": "from",
          "type": "address"
        },
        {
          "internalType": "address",
          "name": "to",
          "type": "address"
        },
        {
          "internalType": "uint256",
          "name": "tokenId",
          "type": "uint256"
        }
      ],
      "name": "safeTransferFrom",
      "outputs": [],
      "stateMutability": "nonpayable",
      "type": "function"
    },
    {
      "inputs": [
        {
          "internalType": "address",
          "name": "from",
          "type": "address"
        },
        {
          "internalType": "address",
          "name": "to",
          "type": "address"
        },
        {
          "internalType": "uint256",
          "name": "tokenId",
          "type": "uint256"
        },
        {
          "internalType": "bytes",
          "name": "data",
          "type": "bytes"
        }
      ],
      "name": "safeTransferFrom",
      "outputs": [],
      "stateMutability": "nonpayable",
      "type": "function"
    },
    {
      "inputs": [
        {
          "internalType": "address",
          "name": "operator",
          "type": "address"
        },
        {
          "internalType": "bool",
          "name": "approved",
          "type": "bool"
        }
      ],
      "name": "setApprovalForAll",
      "outputs": [],
      "stateMutability": "nonpayable",
      "type": "function"
    },
    {
      "inputs": [
        {
          "internalType": "address",
          "name": "_operatorAddress",
          "type": "address"
        }
      ],
      "name": "setOperator",
      "outputs": [],
      "stateMutability": "nonpayable",
      "type": "function"
    },
    {
      "inputs": [],
      "name": "startLottery",
      "outputs": [],
      "stateMutability": "nonpayable",
      "type": "function"
    },
    {
      "inputs": [
        {
          "internalType": "bytes4",
          "name": "interfaceId",
          "type": "bytes4"
        }
      ],
      "name": "supportsInterface",
      "outputs": [
        {
          "internalType": "bool",
          "name": "",
          "type": "bool"
        }
      ],
      "stateMutability": "view",
      "type": "function"
    },
    {
      "inputs": [],
      "name": "symbol",
      "outputs": [
        {
          "internalType": "string",
          "name": "",
          "type": "string"
        }
      ],
      "stateMutability": "view",
      "type": "function"
    },
    {
      "inputs": [
        {
          "internalType": "uint256",
          "name": "index",
          "type": "uint256"
        }
      ],
      "name": "tokenByIndex",
      "outputs": [
        {
          "internalType": "uint256",
          "name": "",
          "type": "uint256"
        }
      ],
      "stateMutability": "view",
      "type": "function"
    },
    {
      "inputs": [
        {
          "internalType": "address",
          "name": "owner",
          "type": "address"
        },
        {
          "internalType": "uint256",
          "name": "index",
          "type": "uint256"
        }
      ],
      "name": "tokenOfOwnerByIndex",
      "outputs": [
        {
          "internalType": "uint256",
          "name": "",
          "type": "uint256"
        }
      ],
      "stateMutability": "view",
      "type": "function"
    },
    {
      "inputs": [
        {
          "internalType": "uint256",
          "name": "tokenId",
          "type": "uint256"
        }
      ],
      "name": "tokenURI",
      "outputs": [
        {
          "internalType": "string",
          "name": "",
          "type": "string"
        }
      ],
      "stateMutability": "view",
      "type": "function"
    },
    {
      "inputs": [],
      "name": "totalSupply",
      "outputs": [
        {
          "internalType": "uint256",
          "name": "",
          "type": "uint256"
        }
      ],
      "stateMutability": "view",
      "type": "function"
    },
    {
      "inputs": [
        {
          "internalType": "address",
          "name": "from",
          "type": "address"
        },
        {
          "internalType": "address",
          "name": "to",
          "type": "address"
        },
        {
          "internalType": "uint256",
          "name": "tokenId",
          "type": "uint256"
        }
      ],
      "name": "transferFrom",
      "outputs": [],
      "stateMutability": "nonpayable",
      "type": "function"
    },
    {
      "inputs": [
        {
          "internalType": "address",
          "name": "newOwner",
          "type": "address"
        }
      ],
      "name": "transferOwnership",
      "outputs": [],
      "stateMutability": "nonpayable",
      "type": "function"
    },
    {
      "inputs": [
        {
          "internalType": "uint256",
          "name": "_lotteryID",
          "type": "uint256"
        }
      ],
      "name": "viewLottery",
      "outputs": [
        {
          "internalType": "uint256",
          "name": "ID",
          "type": "uint256"
        },
        {
          "internalType": "address payable",
          "name": "winner",
          "type": "address"
        },
        {
          "internalType": "uint256",
          "name": "noOfTicketsSold",
          "type": "uint256"
        },
        {
          "internalType": "uint256",
          "name": "winningTicket",
          "type": "uint256"
        },
        {
          "internalType": "uint256",
          "name": "amountInLottery",
          "type": "uint256"
        },
        {
          "internalType": "uint256",
          "name": "lotteryStartTime",
          "type": "uint256"
        },
        {
          "internalType": "uint256",
          "name": "lotteryEndTime",
          "type": "uint256"
        }
      ],
      "stateMutability": "view",
      "type": "function"
    },
    {
      "inputs": [],
      "name": "withdrawContractFunds",
      "outputs": [],
      "stateMutability": "payable",
      "type": "function"
    }
  ],
  "bytecode": "0x60a06040526202a30060809081525073874069fa1eb16d44d622f2e0ca25eea172369bc1600f60006101000a81548173ffffffffffffffffffffffffffffffffffffffff021916908373ffffffffffffffffffffffffffffffffffffffff1602179055506000601160006101000a81548160ff02191690836002811115620000b0577f4e487b7100000000000000000000000000000000000000000000000000000000600052602160045260246000fd5b0217905550348015620000c257600080fd5b50604051620052a8380380620052a88339818101604052810190620000e891906200038d565b6040518060400160405280600a81526020017f4c6f74746572794e4654000000000000000000000000000000000000000000008152506040518060400160405280600481526020017f6c4e46540000000000000000000000000000000000000000000000000000000081525081600090805190602001906200016c929190620002c6565b50806001908051906020019062000185929190620002c6565b505050620001a86200019c620001e260201b60201c565b620001ea60201b60201c565b670de0b6b3a764000081620001be9190620003b9565b600d81905550620001db600c620002b060201b620020471760201c565b50620004d2565b600033905090565b6000600a60009054906101000a900473ffffffffffffffffffffffffffffffffffffffff16905081600a60006101000a81548173ffffffffffffffffffffffffffffffffffffffff021916908373ffffffffffffffffffffffffffffffffffffffff1602179055508173ffffffffffffffffffffffffffffffffffffffff168173ffffffffffffffffffffffffffffffffffffffff167f8be0079c531659141344cd1fd0a4f28419497f9722a3daafe3b4186f6b6457e060405160405180910390a35050565b6001816000016000828254019250508190555050565b828054620002d49062000424565b90600052602060002090601f016020900481019282620002f8576000855562000344565b82601f106200031357805160ff191683800117855562000344565b8280016001018555821562000344579182015b828111156200034357825182559160200191906001019062000326565b5b50905062000353919062000357565b5090565b5b808211156200037257600081600090555060010162000358565b5090565b6000815190506200038781620004b8565b92915050565b600060208284031215620003a057600080fd5b6000620003b08482850162000376565b91505092915050565b6000620003c6826200041a565b9150620003d3836200041a565b9250817fffffffffffffffffffffffffffffffffffffffffffffffffffffffffffffffff04831182151516156200040f576200040e6200045a565b5b828202905092915050565b6000819050919050565b600060028204905060018216806200043d57607f821691505b6020821081141562000454576200045362000489565b5b50919050565b7f4e487b7100000000000000000000000000000000000000000000000000000000600052601160045260246000fd5b7f4e487b7100000000000000000000000000000000000000000000000000000000600052602260045260246000fd5b620004c3816200041a565b8114620004cf57600080fd5b50565b608051614dba620004ee6000396000610eba0152614dba6000f3fe6080604052600436106101d85760003560e01c806342842e0e11610102578063a1f9305611610095578063c87b56dd11610064578063c87b56dd1461065e578063e7f43c681461069b578063e985e9c5146106c6578063f2fde38b14610703576101d8565b8063a1f93056146105cc578063a22cb465146105e3578063b3ab15fb1461060c578063b88d4fde14610635576101d8565b806370a08231116100d157806370a0823114610522578063715018a61461055f5780638da5cb5b1461057657806395d89b41146105a1576101d8565b806342842e0e146104635780634f6ccce71461048c5780636352211e146104c957806367dd74ca14610506576101d8565b8063160344e21161017a57806323b872dd1161014957806323b872dd1461038f5780632423807a146103b85780632f745c59146103fb5780633ffdf1bc14610438576101d8565b8063160344e21461031857806318160ddd1461032f5780631d54656f1461035a5780632100942314610385576101d8565b8063081812fc116101b6578063081812fc1461025c578063095ea7b3146102995780630c3f6acf146102c25780630f1d80c2146102ed576101d8565b806301ffc9a7146101dd57806306fdde031461021a5780630755246314610245575b600080fd5b3480156101e957600080fd5b5061020460048036038101906101ff91906138e8565b61072c565b6040516102119190613f16565b60405180910390f35b34801561022657600080fd5b5061022f61073e565b60405161023c9190613f4c565b60405180910390f35b34801561025157600080fd5b5061025a6107d0565b005b34801561026857600080fd5b50610283600480360381019061027e919061393a565b610bcb565b6040516102909190613e26565b60405180910390f35b3480156102a557600080fd5b506102c060048036038101906102bb9190613883565b610c11565b005b3480156102ce57600080fd5b506102d7610d29565b6040516102e49190613f31565b60405180910390f35b3480156102f957600080fd5b50610302610d3c565b60405161030f919061424e565b60405180910390f35b34801561032457600080fd5b5061032d610d46565b005b34801561033b57600080fd5b50610344610fb0565b604051610351919061424e565b60405180910390f35b34801561036657600080fd5b5061036f610fbd565b60405161037c919061424e565b60405180910390f35b61038d610fc7565b005b34801561039b57600080fd5b506103b660048036038101906103b1919061377d565b6112bb565b005b3480156103c457600080fd5b506103df60048036038101906103da919061393a565b61131b565b6040516103f29796959493929190614269565b60405180910390f35b34801561040757600080fd5b50610422600480360381019061041d9190613883565b611399565b60405161042f919061424e565b60405180910390f35b34801561044457600080fd5b5061044d61143e565b60405161045a919061424e565b60405180910390f35b34801561046f57600080fd5b5061048a6004803603810190610485919061377d565b611586565b005b34801561049857600080fd5b506104b360048036038101906104ae919061393a565b6115a6565b6040516104c0919061424e565b60405180910390f35b3480156104d557600080fd5b506104f060048036038101906104eb919061393a565b61163d565b6040516104fd9190613e26565b60405180910390f35b610520600480360381019061051b919061393a565b6116ef565b005b34801561052e57600080fd5b5061054960048036038101906105449190613718565b611967565b604051610556919061424e565b60405180910390f35b34801561056b57600080fd5b50610574611a1f565b005b34801561058257600080fd5b5061058b611a33565b6040516105989190613e26565b60405180910390f35b3480156105ad57600080fd5b506105b6611a5d565b6040516105c39190613f4c565b60405180910390f35b3480156105d857600080fd5b506105e1611aef565b005b3480156105ef57600080fd5b5061060a60048036038101906106059190613847565b611d69565b005b34801561061857600080fd5b50610633600480360381019061062e9190613718565b611d7f565b005b34801561064157600080fd5b5061065c600480360381019061065791906137cc565b611e3b565b005b34801561066a57600080fd5b506106856004803603810190610680919061393a565b611e9d565b6040516106929190613f4c565b60405180910390f35b3480156106a757600080fd5b506106b0611f05565b6040516106bd9190613e26565b60405180910390f35b3480156106d257600080fd5b506106ed60048036038101906106e89190613741565b611f2f565b6040516106fa9190613f16565b60405180910390f35b34801561070f57600080fd5b5061072a60048036038101906107259190613718565b611fc3565b005b60006107378261205d565b9050919050565b60606000805461074d906145e0565b80601f0160208091040260200160405190810160405280929190818152602001828054610779906145e0565b80156107c65780601f1061079b576101008083540402835291602001916107c6565b820191906000526020600020905b8154815290600101906020018083116107a957829003601f168201915b5050505050905090565b600e60009054906101000a900473ffffffffffffffffffffffffffffffffffffffff1673ffffffffffffffffffffffffffffffffffffffff163373ffffffffffffffffffffffffffffffffffffffff1614610860576040517f08c379a0000000000000000000000000000000000000000000000000000000008152600401610857906141ee565b60405180910390fd5b6002601160009054906101000a900460ff1660028111156108aa577f4e487b7100000000000000000000000000000000000000000000000000000000600052602160045260246000fd5b8160028111156108e3577f4e487b7100000000000000000000000000000000000000000000000000000000600052602160045260246000fd5b14610923576040517f08c379a000000000000000000000000000000000000000000000000000000000815260040161091a9061406e565b60405180910390fd5b600060106000600b54815260200190815260200160002090508060070160008260030154815260200190815260200160002060009054906101000a900473ffffffffffffffffffffffffffffffffffffffff168160010160006101000a81548173ffffffffffffffffffffffffffffffffffffffff021916908373ffffffffffffffffffffffffffffffffffffffff16021790555060006064603283600401546109cd919061442f565b6109d791906143fe565b9050600f60009054906101000a900473ffffffffffffffffffffffffffffffffffffffff1673ffffffffffffffffffffffffffffffffffffffff1663a9059cbb8360010160009054906101000a900473ffffffffffffffffffffffffffffffffffffffff16836040518363ffffffff1660e01b8152600401610a5a929190613e41565b602060405180830381600087803b158015610a7457600080fd5b505af1158015610a88573d6000803e3d6000fd5b505050506040513d601f19601f82011682018060405250810190610aac91906138bf565b610aeb576040517f08c379a0000000000000000000000000000000000000000000000000000000008152600401610ae29061400e565b60405180910390fd5b610b188260010160009054906101000a900473ffffffffffffffffffffffffffffffffffffffff166120d7565b6000601160006101000a81548160ff02191690836002811115610b64577f4e487b7100000000000000000000000000000000000000000000000000000000600052602160045260246000fd5b02179055507fb8309aa7b9899869450dc7af3ae733fd62c38dd03a1d7a15968463b4cdd015248260010160009054906101000a900473ffffffffffffffffffffffffffffffffffffffff1682604051610bbe929190613e41565b60405180910390a1505050565b6000610bd68261218d565b6004600083815260200190815260200160002060009054906101000a900473ffffffffffffffffffffffffffffffffffffffff169050919050565b6000610c1c8261163d565b90508073ffffffffffffffffffffffffffffffffffffffff168373ffffffffffffffffffffffffffffffffffffffff161415610c8d576040517f08c379a0000000000000000000000000000000000000000000000000000000008152600401610c849061416e565b60405180910390fd5b8073ffffffffffffffffffffffffffffffffffffffff16610cac6121d8565b73ffffffffffffffffffffffffffffffffffffffff161480610cdb5750610cda81610cd56121d8565b611f2f565b5b610d1a576040517f08c379a0000000000000000000000000000000000000000000000000000000008152600401610d11906140ce565b60405180910390fd5b610d2483836121e0565b505050565b601160009054906101000a900460ff1681565b6000600d54905090565b6000601160009054906101000a900460ff166002811115610d90577f4e487b7100000000000000000000000000000000000000000000000000000000600052602160045260246000fd5b816002811115610dc9577f4e487b7100000000000000000000000000000000000000000000000000000000600052602160045260246000fd5b14610e09576040517f08c379a0000000000000000000000000000000000000000000000000000000008152600401610e009061406e565b60405180910390fd5b600e60009054906101000a900473ffffffffffffffffffffffffffffffffffffffff1673ffffffffffffffffffffffffffffffffffffffff163373ffffffffffffffffffffffffffffffffffffffff1614610e99576040517f08c379a0000000000000000000000000000000000000000000000000000000008152600401610e90906141ee565b60405180910390fd5b600b6000815480929190610eac90614643565b9190505550600042905060007f000000000000000000000000000000000000000000000000000000000000000082610ee491906143a8565b90506001601160006101000a81548160ff02191690836002811115610f32577f4e487b7100000000000000000000000000000000000000000000000000000000600052602160045260246000fd5b0217905550600060106000600b5481526020019081526020016000209050600b5481600001819055508281600501819055508181600601819055507ffcdeb3394eefba8891818e18ed3c4d1aa8872705afa5819133971caea073dc1d600b548484604051610fa2939291906142d8565b60405180910390a150505050565b6000600880549050905090565b6000600b54905090565b600e60009054906101000a900473ffffffffffffffffffffffffffffffffffffffff1673ffffffffffffffffffffffffffffffffffffffff163373ffffffffffffffffffffffffffffffffffffffff1614611057576040517f08c379a000000000000000000000000000000000000000000000000000000000815260040161104e906141ee565b60405180910390fd5b6000601160009054906101000a900460ff1660028111156110a1577f4e487b7100000000000000000000000000000000000000000000000000000000600052602160045260246000fd5b8160028111156110da577f4e487b7100000000000000000000000000000000000000000000000000000000600052602160045260246000fd5b1461111a576040517f08c379a00000000000000000000000000000000000000000000000000000000081526004016111119061406e565b60405180910390fd5b6000600f60009054906101000a900473ffffffffffffffffffffffffffffffffffffffff1673ffffffffffffffffffffffffffffffffffffffff166370a08231306040518263ffffffff1660e01b81526004016111779190613e26565b60206040518083038186803b15801561118f57600080fd5b505afa1580156111a3573d6000803e3d6000fd5b505050506040513d601f19601f820116820180604052508101906111c79190613963565b9050600f60009054906101000a900473ffffffffffffffffffffffffffffffffffffffff1673ffffffffffffffffffffffffffffffffffffffff1663a9059cbb33836040518363ffffffff1660e01b8152600401611226929190613eed565b602060405180830381600087803b15801561124057600080fd5b505af1158015611254573d6000803e3d6000fd5b505050506040513d601f19601f8201168201806040525081019061127891906138bf565b6112b7576040517f08c379a00000000000000000000000000000000000000000000000000000000081526004016112ae9061418e565b60405180910390fd5b5050565b6112cc6112c66121d8565b82612299565b61130b576040517f08c379a00000000000000000000000000000000000000000000000000000000081526004016113029061422e565b60405180910390fd5b61131683838361232e565b505050565b600080600080600080600080601060008a8152602001908152602001600020905080600001548160010160009054906101000a900473ffffffffffffffffffffffffffffffffffffffff1682600201548360030154846004015485600501548660060154975097509750975097509750975050919395979092949650565b60006113a483611967565b82106113e5576040517f08c379a00000000000000000000000000000000000000000000000000000000081526004016113dc90613f6e565b60405180910390fd5b600660008473ffffffffffffffffffffffffffffffffffffffff1673ffffffffffffffffffffffffffffffffffffffff168152602001908152602001600020600083815260200190815260200160002054905092915050565b6000600e60009054906101000a900473ffffffffffffffffffffffffffffffffffffffff1673ffffffffffffffffffffffffffffffffffffffff163373ffffffffffffffffffffffffffffffffffffffff16146114d0576040517f08c379a00000000000000000000000000000000000000000000000000000000081526004016114c7906141ee565b60405180910390fd5b6000600f60009054906101000a900473ffffffffffffffffffffffffffffffffffffffff1673ffffffffffffffffffffffffffffffffffffffff166370a08231306040518263ffffffff1660e01b815260040161152d9190613e26565b60206040518083038186803b15801561154557600080fd5b505afa158015611559573d6000803e3d6000fd5b505050506040513d601f19601f8201168201806040525081019061157d9190613963565b90508091505090565b6115a183838360405180602001604052806000815250611e3b565b505050565b60006115b0610fb0565b82106115f1576040517f08c379a00000000000000000000000000000000000000000000000000000000081526004016115e8906141ce565b60405180910390fd5b6008828154811061162b577f4e487b7100000000000000000000000000000000000000000000000000000000600052603260045260246000fd5b90600052602060002001549050919050565b6000806002600084815260200190815260200160002060009054906101000a900473ffffffffffffffffffffffffffffffffffffffff169050600073ffffffffffffffffffffffffffffffffffffffff168173ffffffffffffffffffffffffffffffffffffffff1614156116e6576040517f08c379a00000000000000000000000000000000000000000000000000000000081526004016116dd9061414e565b60405180910390fd5b80915050919050565b6001601160009054906101000a900460ff166002811115611739577f4e487b7100000000000000000000000000000000000000000000000000000000600052602160045260246000fd5b816002811115611772577f4e487b7100000000000000000000000000000000000000000000000000000000600052602160045260246000fd5b146117b2576040517f08c379a00000000000000000000000000000000000000000000000000000000081526004016117a99061406e565b60405180910390fd5b60106000600b54815260200190815260200160002060060154421061180c576040517f08c379a00000000000000000000000000000000000000000000000000000000081526004016118039061420e565b60405180910390fd5b600f60009054906101000a900473ffffffffffffffffffffffffffffffffffffffff1673ffffffffffffffffffffffffffffffffffffffff166323b872dd333085600d5461185a919061442f565b6040518463ffffffff1660e01b815260040161187893929190613e6a565b602060405180830381600087803b15801561189257600080fd5b505af11580156118a6573d6000803e3d6000fd5b505050506040513d601f19601f820116820180604052508101906118ca91906138bf565b611909576040517f08c379a0000000000000000000000000000000000000000000000000000000008152600401611900906141ae565b60405180910390fd5b61191282612595565b600b543373ffffffffffffffffffffffffffffffffffffffff167fd7d247b583de1023852eef87b48f54354dbec771d01bc2cc49e96094efc322b98460405161195b919061424e565b60405180910390a35050565b60008073ffffffffffffffffffffffffffffffffffffffff168273ffffffffffffffffffffffffffffffffffffffff1614156119d8576040517f08c379a00000000000000000000000000000000000000000000000000000000081526004016119cf9061408e565b60405180910390fd5b600360008373ffffffffffffffffffffffffffffffffffffffff1673ffffffffffffffffffffffffffffffffffffffff168152602001908152602001600020549050919050565b611a27612686565b611a316000612704565b565b6000600a60009054906101000a900473ffffffffffffffffffffffffffffffffffffffff16905090565b606060018054611a6c906145e0565b80601f0160208091040260200160405190810160405280929190818152602001828054611a98906145e0565b8015611ae55780601f10611aba57610100808354040283529160200191611ae5565b820191906000526020600020905b815481529060010190602001808311611ac857829003601f168201915b5050505050905090565b600e60009054906101000a900473ffffffffffffffffffffffffffffffffffffffff1673ffffffffffffffffffffffffffffffffffffffff163373ffffffffffffffffffffffffffffffffffffffff1614611b7f576040517f08c379a0000000000000000000000000000000000000000000000000000000008152600401611b76906141ee565b60405180910390fd5b6001601160009054906101000a900460ff166002811115611bc9577f4e487b7100000000000000000000000000000000000000000000000000000000600052602160045260246000fd5b816002811115611c02577f4e487b7100000000000000000000000000000000000000000000000000000000600052602160045260246000fd5b14611c42576040517f08c379a0000000000000000000000000000000000000000000000000000000008152600401611c399061406e565b60405180910390fd5b60106000600b548152602001908152602001600020600601544211611c9c576040517f08c379a0000000000000000000000000000000000000000000000000000000008152600401611c939061412e565b60405180910390fd5b600060106000600b548152602001908152602001600020905060008160020154611cc46127ca565b611cce9190614696565b90508082600301819055506002601160006101000a81548160ff02191690836002811115611d25577f4e487b7100000000000000000000000000000000000000000000000000000000600052602160045260246000fd5b0217905550600b547ff494ea9784699a53043a8aeb590b5ee1a1b51e0a95d98eb717c908d820e57e6582604051611d5c919061424e565b60405180910390a2505050565b611d7b611d746121d8565b8383612817565b5050565b611d87612686565b600073ffffffffffffffffffffffffffffffffffffffff168173ffffffffffffffffffffffffffffffffffffffff161415611df7576040517f08c379a0000000000000000000000000000000000000000000000000000000008152600401611dee906140ae565b60405180910390fd5b80600e60006101000a81548173ffffffffffffffffffffffffffffffffffffffff021916908373ffffffffffffffffffffffffffffffffffffffff16021790555050565b611e4c611e466121d8565b83612299565b611e8b576040517f08c379a0000000000000000000000000000000000000000000000000000000008152600401611e829061422e565b60405180910390fd5b611e9784848484612984565b50505050565b6060611ea88261218d565b6000611eb26129e0565b90506000815111611ed25760405180602001604052806000815250611efd565b80611edc846129f7565b604051602001611eed929190613dc5565b6040516020818303038152906040525b915050919050565b6000600e60009054906101000a900473ffffffffffffffffffffffffffffffffffffffff16905090565b6000600560008473ffffffffffffffffffffffffffffffffffffffff1673ffffffffffffffffffffffffffffffffffffffff16815260200190815260200160002060008373ffffffffffffffffffffffffffffffffffffffff1673ffffffffffffffffffffffffffffffffffffffff16815260200190815260200160002060009054906101000a900460ff16905092915050565b611fcb612686565b600073ffffffffffffffffffffffffffffffffffffffff168173ffffffffffffffffffffffffffffffffffffffff16141561203b576040517f08c379a000000000000000000000000000000000000000000000000000000000815260040161203290613fae565b60405180910390fd5b61204481612704565b50565b6001816000016000828254019250508190555050565b60007f780e9d63000000000000000000000000000000000000000000000000000000007bffffffffffffffffffffffffffffffffffffffffffffffffffffffff1916827bffffffffffffffffffffffffffffffffffffffffffffffffffffffff191614806120d057506120cf82612ba4565b5b9050919050565b600e60009054906101000a900473ffffffffffffffffffffffffffffffffffffffff1673ffffffffffffffffffffffffffffffffffffffff163373ffffffffffffffffffffffffffffffffffffffff1614612167576040517f08c379a000000000000000000000000000000000000000000000000000000000815260040161215e906141ee565b60405180910390fd5b6000612173600c612c86565b905061217f600c612047565b6121898282612c94565b5050565b61219681612cb2565b6121d5576040517f08c379a00000000000000000000000000000000000000000000000000000000081526004016121cc9061414e565b60405180910390fd5b50565b600033905090565b816004600083815260200190815260200160002060006101000a81548173ffffffffffffffffffffffffffffffffffffffff021916908373ffffffffffffffffffffffffffffffffffffffff160217905550808273ffffffffffffffffffffffffffffffffffffffff166122538361163d565b73ffffffffffffffffffffffffffffffffffffffff167f8c5be1e5ebec7d5bd14f71427d1e84f3dd0314c0f7b2291e5b200ac8c7c3b92560405160405180910390a45050565b6000806122a58361163d565b90508073ffffffffffffffffffffffffffffffffffffffff168473ffffffffffffffffffffffffffffffffffffffff1614806122e757506122e68185611f2f565b5b8061232557508373ffffffffffffffffffffffffffffffffffffffff1661230d84610bcb565b73ffffffffffffffffffffffffffffffffffffffff16145b91505092915050565b8273ffffffffffffffffffffffffffffffffffffffff1661234e8261163d565b73ffffffffffffffffffffffffffffffffffffffff16146123a4576040517f08c379a000000000000000000000000000000000000000000000000000000000815260040161239b90613fce565b60405180910390fd5b600073ffffffffffffffffffffffffffffffffffffffff168273ffffffffffffffffffffffffffffffffffffffff161415612414576040517f08c379a000000000000000000000000000000000000000000000000000000000815260040161240b9061402e565b60405180910390fd5b61241f838383612d1e565b61242a6000826121e0565b6001600360008573ffffffffffffffffffffffffffffffffffffffff1673ffffffffffffffffffffffffffffffffffffffff168152602001908152602001600020600082825461247a9190614489565b925050819055506001600360008473ffffffffffffffffffffffffffffffffffffffff1673ffffffffffffffffffffffffffffffffffffffff16815260200190815260200160002060008282546124d191906143a8565b92505081905550816002600083815260200190815260200160002060006101000a81548173ffffffffffffffffffffffffffffffffffffffff021916908373ffffffffffffffffffffffffffffffffffffffff160217905550808273ffffffffffffffffffffffffffffffffffffffff168473ffffffffffffffffffffffffffffffffffffffff167fddf252ad1be2c89b69c2b068fc378daa952ba7f163c4a11628f55a4df523b3ef60405160405180910390a4612590838383612d2e565b505050565b600060106000600b5481526020019081526020016000209050600081600201549050600083826125c591906143a8565b905060008290505b8181101561263c573384600701600083815260200190815260200160002060006101000a81548173ffffffffffffffffffffffffffffffffffffffff021916908373ffffffffffffffffffffffffffffffffffffffff160217905550808061263490614643565b9150506125cd565b508383600201600082825461265191906143a8565b92505081905550600d5484612666919061442f565b83600401600082825461267991906143a8565b9250508190555050505050565b61268e6121d8565b73ffffffffffffffffffffffffffffffffffffffff166126ac611a33565b73ffffffffffffffffffffffffffffffffffffffff1614612702576040517f08c379a00000000000000000000000000000000000000000000000000000000081526004016126f99061410e565b60405180910390fd5b565b6000600a60009054906101000a900473ffffffffffffffffffffffffffffffffffffffff16905081600a60006101000a81548173ffffffffffffffffffffffffffffffffffffffff021916908373ffffffffffffffffffffffffffffffffffffffff1602179055508173ffffffffffffffffffffffffffffffffffffffff168173ffffffffffffffffffffffffffffffffffffffff167f8be0079c531659141344cd1fd0a4f28419497f9722a3daafe3b4186f6b6457e060405160405180910390a35050565b6000444260106000600b548152602001908152602001600020600201546040516020016127f993929190613de9565b6040516020818303038152906040528051906020012060001c905090565b8173ffffffffffffffffffffffffffffffffffffffff168373ffffffffffffffffffffffffffffffffffffffff161415612886576040517f08c379a000000000000000000000000000000000000000000000000000000000815260040161287d9061404e565b60405180910390fd5b80600560008573ffffffffffffffffffffffffffffffffffffffff1673ffffffffffffffffffffffffffffffffffffffff16815260200190815260200160002060008473ffffffffffffffffffffffffffffffffffffffff1673ffffffffffffffffffffffffffffffffffffffff16815260200190815260200160002060006101000a81548160ff0219169083151502179055508173ffffffffffffffffffffffffffffffffffffffff168373ffffffffffffffffffffffffffffffffffffffff167f17307eab39ab6107e8899845ad3d59bd9653f200f220920489ca2b5937696c31836040516129779190613f16565b60405180910390a3505050565b61298f84848461232e565b61299b84848484612d33565b6129da576040517f08c379a00000000000000000000000000000000000000000000000000000000081526004016129d190613f8e565b60405180910390fd5b50505050565b606060405180602001604052806000815250905090565b60606000821415612a3f576040518060400160405280600181526020017f30000000000000000000000000000000000000000000000000000000000000008152509050612b9f565b600082905060005b60008214612a71578080612a5a90614643565b915050600a82612a6a91906143fe565b9150612a47565b60008167ffffffffffffffff811115612ab3577f4e487b7100000000000000000000000000000000000000000000000000000000600052604160045260246000fd5b6040519080825280601f01601f191660200182016040528015612ae55781602001600182028036833780820191505090505b5090505b60008514612b9857600182612afe9190614489565b9150600a85612b0d9190614696565b6030612b1991906143a8565b60f81b818381518110612b55577f4e487b7100000000000000000000000000000000000000000000000000000000600052603260045260246000fd5b60200101907effffffffffffffffffffffffffffffffffffffffffffffffffffffffffffff1916908160001a905350600a85612b9191906143fe565b9450612ae9565b8093505050505b919050565b60007f80ac58cd000000000000000000000000000000000000000000000000000000007bffffffffffffffffffffffffffffffffffffffffffffffffffffffff1916827bffffffffffffffffffffffffffffffffffffffffffffffffffffffff19161480612c6f57507f5b5e139f000000000000000000000000000000000000000000000000000000007bffffffffffffffffffffffffffffffffffffffffffffffffffffffff1916827bffffffffffffffffffffffffffffffffffffffffffffffffffffffff1916145b80612c7f5750612c7e82612eca565b5b9050919050565b600081600001549050919050565b612cae828260405180602001604052806000815250612f34565b5050565b60008073ffffffffffffffffffffffffffffffffffffffff166002600084815260200190815260200160002060009054906101000a900473ffffffffffffffffffffffffffffffffffffffff1673ffffffffffffffffffffffffffffffffffffffff1614159050919050565b612d29838383612f8f565b505050565b505050565b6000612d548473ffffffffffffffffffffffffffffffffffffffff166130a3565b15612ebd578373ffffffffffffffffffffffffffffffffffffffff1663150b7a02612d7d6121d8565b8786866040518563ffffffff1660e01b8152600401612d9f9493929190613ea1565b602060405180830381600087803b158015612db957600080fd5b505af1925050508015612dea57506040513d601f19601f82011682018060405250810190612de79190613911565b60015b612e6d573d8060008114612e1a576040519150601f19603f3d011682016040523d82523d6000602084013e612e1f565b606091505b50600081511415612e65576040517f08c379a0000000000000000000000000000000000000000000000000000000008152600401612e5c90613f8e565b60405180910390fd5b805181602001fd5b63150b7a0260e01b7bffffffffffffffffffffffffffffffffffffffffffffffffffffffff1916817bffffffffffffffffffffffffffffffffffffffffffffffffffffffff191614915050612ec2565b600190505b949350505050565b60007f01ffc9a7000000000000000000000000000000000000000000000000000000007bffffffffffffffffffffffffffffffffffffffffffffffffffffffff1916827bffffffffffffffffffffffffffffffffffffffffffffffffffffffff1916149050919050565b612f3e83836130c6565b612f4b6000848484612d33565b612f8a576040517f08c379a0000000000000000000000000000000000000000000000000000000008152600401612f8190613f8e565b60405180910390fd5b505050565b612f9a8383836132a0565b600073ffffffffffffffffffffffffffffffffffffffff168373ffffffffffffffffffffffffffffffffffffffff161415612fdd57612fd8816132a5565b61301c565b8173ffffffffffffffffffffffffffffffffffffffff168373ffffffffffffffffffffffffffffffffffffffff161461301b5761301a83826132ee565b5b5b600073ffffffffffffffffffffffffffffffffffffffff168273ffffffffffffffffffffffffffffffffffffffff16141561305f5761305a8161345b565b61309e565b8273ffffffffffffffffffffffffffffffffffffffff168273ffffffffffffffffffffffffffffffffffffffff161461309d5761309c828261359e565b5b5b505050565b6000808273ffffffffffffffffffffffffffffffffffffffff163b119050919050565b600073ffffffffffffffffffffffffffffffffffffffff168273ffffffffffffffffffffffffffffffffffffffff161415613136576040517f08c379a000000000000000000000000000000000000000000000000000000000815260040161312d906140ee565b60405180910390fd5b61313f81612cb2565b1561317f576040517f08c379a000000000000000000000000000000000000000000000000000000000815260040161317690613fee565b60405180910390fd5b61318b60008383612d1e565b6001600360008473ffffffffffffffffffffffffffffffffffffffff1673ffffffffffffffffffffffffffffffffffffffff16815260200190815260200160002060008282546131db91906143a8565b92505081905550816002600083815260200190815260200160002060006101000a81548173ffffffffffffffffffffffffffffffffffffffff021916908373ffffffffffffffffffffffffffffffffffffffff160217905550808273ffffffffffffffffffffffffffffffffffffffff16600073ffffffffffffffffffffffffffffffffffffffff167fddf252ad1be2c89b69c2b068fc378daa952ba7f163c4a11628f55a4df523b3ef60405160405180910390a461329c60008383612d2e565b5050565b505050565b6008805490506009600083815260200190815260200160002081905550600881908060018154018082558091505060019003906000526020600020016000909190919091505550565b600060016132fb84611967565b6133059190614489565b90506000600760008481526020019081526020016000205490508181146133ea576000600660008673ffffffffffffffffffffffffffffffffffffffff1673ffffffffffffffffffffffffffffffffffffffff168152602001908152602001600020600084815260200190815260200160002054905080600660008773ffffffffffffffffffffffffffffffffffffffff1673ffffffffffffffffffffffffffffffffffffffff168152602001908152602001600020600084815260200190815260200160002081905550816007600083815260200190815260200160002081905550505b6007600084815260200190815260200160002060009055600660008573ffffffffffffffffffffffffffffffffffffffff1673ffffffffffffffffffffffffffffffffffffffff16815260200190815260200160002060008381526020019081526020016000206000905550505050565b6000600160088054905061346f9190614489565b90506000600960008481526020019081526020016000205490506000600883815481106134c5577f4e487b7100000000000000000000000000000000000000000000000000000000600052603260045260246000fd5b90600052602060002001549050806008838154811061350d577f4e487b7100000000000000000000000000000000000000000000000000000000600052603260045260246000fd5b906000526020600020018190555081600960008381526020019081526020016000208190555060096000858152602001908152602001600020600090556008805480613582577f4e487b7100000000000000000000000000000000000000000000000000000000600052603160045260246000fd5b6001900381819060005260206000200160009055905550505050565b60006135a983611967565b905081600660008573ffffffffffffffffffffffffffffffffffffffff1673ffffffffffffffffffffffffffffffffffffffff168152602001908152602001600020600083815260200190815260200160002081905550806007600084815260200190815260200160002081905550505050565b600061363061362b84614334565b61430f565b90508281526020810184848401111561364857600080fd5b61365384828561459e565b509392505050565b60008135905061366a81614d28565b92915050565b60008135905061367f81614d3f565b92915050565b60008151905061369481614d3f565b92915050565b6000813590506136a981614d56565b92915050565b6000815190506136be81614d56565b92915050565b600082601f8301126136d557600080fd5b81356136e584826020860161361d565b91505092915050565b6000813590506136fd81614d6d565b92915050565b60008151905061371281614d6d565b92915050565b60006020828403121561372a57600080fd5b60006137388482850161365b565b91505092915050565b6000806040838503121561375457600080fd5b60006137628582860161365b565b92505060206137738582860161365b565b9150509250929050565b60008060006060848603121561379257600080fd5b60006137a08682870161365b565b93505060206137b18682870161365b565b92505060406137c2868287016136ee565b9150509250925092565b600080600080608085870312156137e257600080fd5b60006137f08782880161365b565b94505060206138018782880161365b565b9350506040613812878288016136ee565b925050606085013567ffffffffffffffff81111561382f57600080fd5b61383b878288016136c4565b91505092959194509250565b6000806040838503121561385a57600080fd5b60006138688582860161365b565b925050602061387985828601613670565b9150509250929050565b6000806040838503121561389657600080fd5b60006138a48582860161365b565b92505060206138b5858286016136ee565b9150509250929050565b6000602082840312156138d157600080fd5b60006138df84828501613685565b91505092915050565b6000602082840312156138fa57600080fd5b60006139088482850161369a565b91505092915050565b60006020828403121561392357600080fd5b6000613931848285016136af565b91505092915050565b60006020828403121561394c57600080fd5b600061395a848285016136ee565b91505092915050565b60006020828403121561397557600080fd5b600061398384828501613703565b91505092915050565b61399581614556565b82525050565b6139a4816144cf565b82525050565b6139b3816144bd565b82525050565b6139c2816144e1565b82525050565b60006139d382614365565b6139dd818561437b565b93506139ed8185602086016145ad565b6139f6816147b2565b840191505092915050565b613a0a81614568565b82525050565b6000613a1b82614370565b613a25818561438c565b9350613a358185602086016145ad565b613a3e816147b2565b840191505092915050565b6000613a5482614370565b613a5e818561439d565b9350613a6e8185602086016145ad565b80840191505092915050565b6000613a87602b8361438c565b9150613a92826147c3565b604082019050919050565b6000613aaa60328361438c565b9150613ab582614812565b604082019050919050565b6000613acd60268361438c565b9150613ad882614861565b604082019050919050565b6000613af060258361438c565b9150613afb826148b0565b604082019050919050565b6000613b13601c8361438c565b9150613b1e826148ff565b602082019050919050565b6000613b3660138361438c565b9150613b4182614928565b602082019050919050565b6000613b5960248361438c565b9150613b6482614951565b604082019050919050565b6000613b7c60198361438c565b9150613b87826149a0565b602082019050919050565b6000613b9f60218361438c565b9150613baa826149c9565b604082019050919050565b6000613bc260298361438c565b9150613bcd82614a18565b604082019050919050565b6000613be560158361438c565b9150613bf082614a67565b602082019050919050565b6000613c08603e8361438c565b9150613c1382614a90565b604082019050919050565b6000613c2b60208361438c565b9150613c3682614adf565b602082019050919050565b6000613c4e60208361438c565b9150613c5982614b08565b602082019050919050565b6000613c7160158361438c565b9150613c7c82614b31565b602082019050919050565b6000613c9460188361438c565b9150613c9f82614b5a565b602082019050919050565b6000613cb760218361438c565b9150613cc282614b83565b604082019050919050565b6000613cda60188361438c565b9150613ce582614bd2565b602082019050919050565b6000613cfd60108361438c565b9150613d0882614bfb565b602082019050919050565b6000613d20602c8361438c565b9150613d2b82614c24565b604082019050919050565b6000613d43600c8361438c565b9150613d4e82614c73565b602082019050919050565b6000613d66601a8361438c565b9150613d7182614c9c565b602082019050919050565b6000613d89602e8361438c565b9150613d9482614cc5565b604082019050919050565b613da88161454c565b82525050565b613dbf613dba8261454c565b61468c565b82525050565b6000613dd18285613a49565b9150613ddd8284613a49565b91508190509392505050565b6000613df58286613dae565b602082019150613e058285613dae565b602082019150613e158284613dae565b602082019150819050949350505050565b6000602082019050613e3b60008301846139aa565b92915050565b6000604082019050613e56600083018561398c565b613e636020830184613d9f565b9392505050565b6000606082019050613e7f60008301866139aa565b613e8c60208301856139aa565b613e996040830184613d9f565b949350505050565b6000608082019050613eb660008301876139aa565b613ec360208301866139aa565b613ed06040830185613d9f565b8181036060830152613ee281846139c8565b905095945050505050565b6000604082019050613f0260008301856139aa565b613f0f6020830184613d9f565b9392505050565b6000602082019050613f2b60008301846139b9565b92915050565b6000602082019050613f466000830184613a01565b92915050565b60006020820190508181036000830152613f668184613a10565b905092915050565b60006020820190508181036000830152613f8781613a7a565b9050919050565b60006020820190508181036000830152613fa781613a9d565b9050919050565b60006020820190508181036000830152613fc781613ac0565b9050919050565b60006020820190508181036000830152613fe781613ae3565b9050919050565b6000602082019050818103600083015261400781613b06565b9050919050565b6000602082019050818103600083015261402781613b29565b9050919050565b6000602082019050818103600083015261404781613b4c565b9050919050565b6000602082019050818103600083015261406781613b6f565b9050919050565b6000602082019050818103600083015261408781613b92565b9050919050565b600060208201905081810360008301526140a781613bb5565b9050919050565b600060208201905081810360008301526140c781613bd8565b9050919050565b600060208201905081810360008301526140e781613bfb565b9050919050565b6000602082019050818103600083015261410781613c1e565b9050919050565b6000602082019050818103600083015261412781613c41565b9050919050565b6000602082019050818103600083015261414781613c64565b9050919050565b6000602082019050818103600083015261416781613c87565b9050919050565b6000602082019050818103600083015261418781613caa565b9050919050565b600060208201905081810360008301526141a781613ccd565b9050919050565b600060208201905081810360008301526141c781613cf0565b9050919050565b600060208201905081810360008301526141e781613d13565b9050919050565b6000602082019050818103600083015261420781613d36565b9050919050565b6000602082019050818103600083015261422781613d59565b9050919050565b6000602082019050818103600083015261424781613d7c565b9050919050565b60006020820190506142636000830184613d9f565b92915050565b600060e08201905061427e600083018a613d9f565b61428b602083018961399b565b6142986040830188613d9f565b6142a56060830187613d9f565b6142b26080830186613d9f565b6142bf60a0830185613d9f565b6142cc60c0830184613d9f565b98975050505050505050565b60006060820190506142ed6000830186613d9f565b6142fa6020830185613d9f565b6143076040830184613d9f565b949350505050565b600061431961432a565b90506143258282614612565b919050565b6000604051905090565b600067ffffffffffffffff82111561434f5761434e614783565b5b614358826147b2565b9050602081019050919050565b600081519050919050565b600081519050919050565b600082825260208201905092915050565b600082825260208201905092915050565b600081905092915050565b60006143b38261454c565b91506143be8361454c565b9250827fffffffffffffffffffffffffffffffffffffffffffffffffffffffffffffffff038211156143f3576143f26146c7565b5b828201905092915050565b60006144098261454c565b91506144148361454c565b925082614424576144236146f6565b5b828204905092915050565b600061443a8261454c565b91506144458361454c565b9250817fffffffffffffffffffffffffffffffffffffffffffffffffffffffffffffffff048311821515161561447e5761447d6146c7565b5b828202905092915050565b60006144948261454c565b915061449f8361454c565b9250828210156144b2576144b16146c7565b5b828203905092915050565b60006144c88261452c565b9050919050565b60006144da8261452c565b9050919050565b60008115159050919050565b60007fffffffff0000000000000000000000000000000000000000000000000000000082169050919050565b600081905061452782614d14565b919050565b600073ffffffffffffffffffffffffffffffffffffffff82169050919050565b6000819050919050565b60006145618261457a565b9050919050565b600061457382614519565b9050919050565b60006145858261458c565b9050919050565b60006145978261452c565b9050919050565b82818337600083830152505050565b60005b838110156145cb5780820151818401526020810190506145b0565b838111156145da576000848401525b50505050565b600060028204905060018216806145f857607f821691505b6020821081141561460c5761460b614754565b5b50919050565b61461b826147b2565b810181811067ffffffffffffffff8211171561463a57614639614783565b5b80604052505050565b600061464e8261454c565b91507fffffffffffffffffffffffffffffffffffffffffffffffffffffffffffffffff821415614681576146806146c7565b5b600182019050919050565b6000819050919050565b60006146a18261454c565b91506146ac8361454c565b9250826146bc576146bb6146f6565b5b828206905092915050565b7f4e487b7100000000000000000000000000000000000000000000000000000000600052601160045260246000fd5b7f4e487b7100000000000000000000000000000000000000000000000000000000600052601260045260246000fd5b7f4e487b7100000000000000000000000000000000000000000000000000000000600052602160045260246000fd5b7f4e487b7100000000000000000000000000000000000000000000000000000000600052602260045260246000fd5b7f4e487b7100000000000000000000000000000000000000000000000000000000600052604160045260246000fd5b6000601f19601f8301169050919050565b7f455243373231456e756d657261626c653a206f776e657220696e646578206f7560008201527f74206f6620626f756e6473000000000000000000000000000000000000000000602082015250565b7f4552433732313a207472616e7366657220746f206e6f6e20455243373231526560008201527f63656976657220696d706c656d656e7465720000000000000000000000000000602082015250565b7f4f776e61626c653a206e6577206f776e657220697320746865207a65726f206160008201527f6464726573730000000000000000000000000000000000000000000000000000602082015250565b7f4552433732313a207472616e736665722066726f6d20696e636f72726563742060008201527f6f776e6572000000000000000000000000000000000000000000000000000000602082015250565b7f4552433732313a20746f6b656e20616c7265616479206d696e74656400000000600082015250565b7f7061796f757420756e7375636365737366756c00000000000000000000000000600082015250565b7f4552433732313a207472616e7366657220746f20746865207a65726f2061646460008201527f7265737300000000000000000000000000000000000000000000000000000000602082015250565b7f4552433732313a20617070726f766520746f2063616c6c657200000000000000600082015250565b7f63757272656e7420737461746520646f6573206e6f7420616c6c6f772074686960008201527f7300000000000000000000000000000000000000000000000000000000000000602082015250565b7f4552433732313a2061646472657373207a65726f206973206e6f74206120766160008201527f6c6964206f776e65720000000000000000000000000000000000000000000000602082015250565b7f41646472657373206d7573742062652076616c69640000000000000000000000600082015250565b7f4552433732313a20617070726f76652063616c6c6572206973206e6f7420746f60008201527f6b656e206f776e6572206e6f7220617070726f76656420666f7220616c6c0000602082015250565b7f4552433732313a206d696e7420746f20746865207a65726f2061646472657373600082015250565b7f4f776e61626c653a2063616c6c6572206973206e6f7420746865206f776e6572600082015250565b7f4c6f747465727920686173206e6f7420656e6465640000000000000000000000600082015250565b7f4552433732313a20696e76616c696420746f6b656e2049440000000000000000600082015250565b7f4552433732313a20617070726f76616c20746f2063757272656e74206f776e6560008201527f7200000000000000000000000000000000000000000000000000000000000000602082015250565b7f556e61626c6520746f2077697468647261772066756e64730000000000000000600082015250565b7f5472616e73666572206661696c65642e00000000000000000000000000000000600082015250565b7f455243373231456e756d657261626c653a20676c6f62616c20696e646578206f60008201527f7574206f6620626f756e64730000000000000000000000000000000000000000602082015250565b7f4e6f74204f70657261746f720000000000000000000000000000000000000000600082015250565b7f4c6f74746572792068617320616c726561647920656e64656421000000000000600082015250565b7f4552433732313a2063616c6c6572206973206e6f7420746f6b656e206f776e6560008201527f72206e6f7220617070726f766564000000000000000000000000000000000000602082015250565b60038110614d2557614d24614725565b5b50565b614d31816144bd565b8114614d3c57600080fd5b50565b614d48816144e1565b8114614d5357600080fd5b50565b614d5f816144ed565b8114614d6a57600080fd5b50565b614d768161454c565b8114614d8157600080fd5b5056fea264697066735822122041ad43ee4d04f646784c4ad87cd6964b08a42faf78f7aab8d3b655733aedd0c064736f6c63430008040033",
  "linkReferences": {},
  "deployedLinkReferences": {}
}