{
  "_format": "hh-sol-artifact-1",
  "contractName": "NFTLottery",
  "sourceName": "contracts/NFTLottery.sol",
  "abi": [
    {
      "inputs": [
        {
          "internalType": "uint256",
          "name": "_ticketPrice",
          "type": "uint256"
        },
        {
          "internalType": "uint256",
          "name": "_lotteryInterval",
          "type": "uint256"
        },
        {
          "internalType": "string",
          "name": "_timeUnit",
          "type": "string"
        }
      ],
      "stateMutability": "nonpayable",
      "type": "constructor"
    },
    {
      "anonymous": false,
      "inputs": [
        {
          "indexed": true,
          "internalType": "address",
          "name": "owner",
          "type": "address"
        },
        {
          "indexed": true,
          "internalType": "address",
          "name": "approved",
          "type": "address"
        },
        {
          "indexed": true,
          "internalType": "uint256",
          "name": "tokenId",
          "type": "uint256"
        }
      ],
      "name": "Approval",
      "type": "event"
    },
    {
      "anonymous": false,
      "inputs": [
        {
          "indexed": true,
          "internalType": "address",
          "name": "owner",
          "type": "address"
        },
        {
          "indexed": true,
          "internalType": "address",
          "name": "operator",
          "type": "address"
        },
        {
          "indexed": false,
          "internalType": "bool",
          "name": "approved",
          "type": "bool"
        }
      ],
      "name": "ApprovalForAll",
      "type": "event"
    },
    {
      "anonymous": false,
      "inputs": [
        {
          "indexed": true,
          "internalType": "uint256",
          "name": "lotteryId",
          "type": "uint256"
        },
        {
          "indexed": false,
          "internalType": "uint256",
          "name": "finalNumber",
          "type": "uint256"
        }
      ],
      "name": "LotteryNumberGenerated",
      "type": "event"
    },
    {
      "anonymous": false,
      "inputs": [
        {
          "indexed": false,
          "internalType": "uint256",
          "name": "lotteryID",
          "type": "uint256"
        },
        {
          "indexed": false,
          "internalType": "uint256",
          "name": "lotteryStartTime",
          "type": "uint256"
        },
        {
          "indexed": false,
          "internalType": "uint256",
          "name": "lotteryEndTime",
          "type": "uint256"
        }
      ],
      "name": "LotteryStarted",
      "type": "event"
    },
    {
      "anonymous": false,
      "inputs": [
        {
          "indexed": false,
          "internalType": "uint256",
          "name": "interval",
          "type": "uint256"
        },
        {
          "indexed": false,
          "internalType": "string",
          "name": "timeUnit",
          "type": "string"
        }
      ],
      "name": "NewLotteryInterval",
      "type": "event"
    },
    {
      "anonymous": false,
      "inputs": [
        {
          "indexed": false,
          "internalType": "address",
          "name": "operatorAddress",
          "type": "address"
        }
      ],
      "name": "NewOperator",
      "type": "event"
    },
    {
      "anonymous": false,
      "inputs": [
        {
          "indexed": true,
          "internalType": "address",
          "name": "previousOwner",
          "type": "address"
        },
        {
          "indexed": true,
          "internalType": "address",
          "name": "newOwner",
          "type": "address"
        }
      ],
      "name": "OwnershipTransferred",
      "type": "event"
    },
    {
      "anonymous": false,
      "inputs": [
        {
          "indexed": true,
          "internalType": "address",
          "name": "buyer",
          "type": "address"
        },
        {
          "indexed": true,
          "internalType": "uint256",
          "name": "lotteryId",
          "type": "uint256"
        },
        {
          "indexed": false,
          "internalType": "uint256",
          "name": "numberTicket",
          "type": "uint256"
        }
      ],
      "name": "TicketsPurchase",
      "type": "event"
    },
    {
      "anonymous": false,
      "inputs": [
        {
          "indexed": true,
          "internalType": "address",
          "name": "from",
          "type": "address"
        },
        {
          "indexed": true,
          "internalType": "address",
          "name": "to",
          "type": "address"
        },
        {
          "indexed": true,
          "internalType": "uint256",
          "name": "tokenId",
          "type": "uint256"
        }
      ],
      "name": "Transfer",
      "type": "event"
    },
    {
      "anonymous": false,
      "inputs": [
        {
          "indexed": false,
          "internalType": "address",
          "name": "winner",
          "type": "address"
        },
        {
          "indexed": false,
          "internalType": "uint256",
          "name": "amount",
          "type": "uint256"
        }
      ],
      "name": "WinnersAwarded",
      "type": "event"
    },
    {
      "anonymous": false,
      "inputs": [
        {
          "indexed": false,
          "internalType": "uint256",
          "name": "amount",
          "type": "uint256"
        },
        {
          "indexed": false,
          "internalType": "address",
          "name": "operator",
          "type": "address"
        }
      ],
      "name": "WithdrawalComplete",
      "type": "event"
    },
    {
      "inputs": [
        {
          "internalType": "address",
          "name": "to",
          "type": "address"
        },
        {
          "internalType": "uint256",
          "name": "tokenId",
          "type": "uint256"
        }
      ],
      "name": "approve",
      "outputs": [],
      "stateMutability": "nonpayable",
      "type": "function"
    },
    {
      "inputs": [
        {
          "internalType": "address",
          "name": "owner",
          "type": "address"
        }
      ],
      "name": "balanceOf",
      "outputs": [
        {
          "internalType": "uint256",
          "name": "",
          "type": "uint256"
        }
      ],
      "stateMutability": "view",
      "type": "function"
    },
    {
      "inputs": [
        {
          "internalType": "uint256",
          "name": "_noOfTickets",
          "type": "uint256"
        }
      ],
      "name": "buyTicket",
      "outputs": [],
      "stateMutability": "nonpayable",
      "type": "function"
    },
    {
      "inputs": [],
      "name": "checkConractFunds",
      "outputs": [
        {
          "internalType": "uint256",
          "name": "",
          "type": "uint256"
        }
      ],
      "stateMutability": "view",
      "type": "function"
    },
    {
      "inputs": [],
      "name": "checkTicketPrice",
      "outputs": [
        {
          "internalType": "uint256",
          "name": "",
          "type": "uint256"
        }
      ],
      "stateMutability": "view",
      "type": "function"
    },
    {
      "inputs": [],
      "name": "currentState",
      "outputs": [
        {
          "internalType": "enum NFTLottery.State",
          "name": "",
          "type": "uint8"
        }
      ],
      "stateMutability": "view",
      "type": "function"
    },
    {
      "inputs": [
        {
          "internalType": "uint256",
          "name": "tokenId",
          "type": "uint256"
        }
      ],
      "name": "getApproved",
      "outputs": [
        {
          "internalType": "address",
          "name": "",
          "type": "address"
        }
      ],
      "stateMutability": "view",
      "type": "function"
    },
    {
      "inputs": [],
      "name": "getLotteryID",
      "outputs": [
        {
          "internalType": "uint256",
          "name": "",
          "type": "uint256"
        }
      ],
      "stateMutability": "view",
      "type": "function"
    },
    {
      "inputs": [],
      "name": "getOperator",
      "outputs": [
        {
          "internalType": "address",
          "name": "",
          "type": "address"
        }
      ],
      "stateMutability": "view",
      "type": "function"
    },
    {
      "inputs": [
        {
          "internalType": "address",
          "name": "_player",
          "type": "address"
        },
        {
          "internalType": "uint256",
          "name": "_lotteryID",
          "type": "uint256"
        }
      ],
      "name": "getPlayerTicketCount",
      "outputs": [
        {
          "internalType": "uint256",
          "name": "",
          "type": "uint256"
        }
      ],
      "stateMutability": "view",
      "type": "function"
    },
    {
      "inputs": [],
      "name": "getWinningTickets",
      "outputs": [],
      "stateMutability": "nonpayable",
      "type": "function"
    },
    {
      "inputs": [
        {
          "internalType": "address",
          "name": "owner",
          "type": "address"
        },
        {
          "internalType": "address",
          "name": "operator",
          "type": "address"
        }
      ],
      "name": "isApprovedForAll",
      "outputs": [
        {
          "internalType": "bool",
          "name": "",
          "type": "bool"
        }
      ],
      "stateMutability": "view",
      "type": "function"
    },
    {
      "inputs": [],
      "name": "lotteryInterval",
      "outputs": [
        {
          "internalType": "uint256",
          "name": "",
          "type": "uint256"
        }
      ],
      "stateMutability": "view",
      "type": "function"
    },
    {
      "inputs": [],
      "name": "name",
      "outputs": [
        {
          "internalType": "string",
          "name": "",
          "type": "string"
        }
      ],
      "stateMutability": "view",
      "type": "function"
    },
    {
      "inputs": [],
      "name": "owner",
      "outputs": [
        {
          "internalType": "address",
          "name": "",
          "type": "address"
        }
      ],
      "stateMutability": "view",
      "type": "function"
    },
    {
      "inputs": [
        {
          "internalType": "uint256",
          "name": "tokenId",
          "type": "uint256"
        }
      ],
      "name": "ownerOf",
      "outputs": [
        {
          "internalType": "address",
          "name": "",
          "type": "address"
        }
      ],
      "stateMutability": "view",
      "type": "function"
    },
    {
      "inputs": [],
      "name": "payoutWinner",
      "outputs": [],
      "stateMutability": "nonpayable",
      "type": "function"
    },
    {
      "inputs": [],
      "name": "renounceOwnership",
      "outputs": [],
      "stateMutability": "nonpayable",
      "type": "function"
    },
    {
      "inputs": [],
      "name": "rolloverStatus",
      "outputs": [
        {
          "internalType": "bool",
          "name": "",
          "type": "bool"
        }
      ],
      "stateMutability": "view",
      "type": "function"
    },
    {
      "inputs": [
        {
          "internalType": "address",
          "name": "from",
          "type": "address"
        },
        {
          "internalType": "address",
          "name": "to",
          "type": "address"
        },
        {
          "internalType": "uint256",
          "name": "tokenId",
          "type": "uint256"
        }
      ],
      "name": "safeTransferFrom",
      "outputs": [],
      "stateMutability": "nonpayable",
      "type": "function"
    },
    {
      "inputs": [
        {
          "internalType": "address",
          "name": "from",
          "type": "address"
        },
        {
          "internalType": "address",
          "name": "to",
          "type": "address"
        },
        {
          "internalType": "uint256",
          "name": "tokenId",
          "type": "uint256"
        },
        {
          "internalType": "bytes",
          "name": "data",
          "type": "bytes"
        }
      ],
      "name": "safeTransferFrom",
      "outputs": [],
      "stateMutability": "nonpayable",
      "type": "function"
    },
    {
      "inputs": [
        {
          "internalType": "address",
          "name": "operator",
          "type": "address"
        },
        {
          "internalType": "bool",
          "name": "approved",
          "type": "bool"
        }
      ],
      "name": "setApprovalForAll",
      "outputs": [],
      "stateMutability": "nonpayable",
      "type": "function"
    },
    {
      "inputs": [
        {
          "internalType": "address",
          "name": "_operatorAddress",
          "type": "address"
        }
      ],
      "name": "setOperator",
      "outputs": [],
      "stateMutability": "nonpayable",
      "type": "function"
    },
    {
      "inputs": [],
      "name": "startLottery",
      "outputs": [],
      "stateMutability": "nonpayable",
      "type": "function"
    },
    {
      "inputs": [
        {
          "internalType": "bytes4",
          "name": "interfaceId",
          "type": "bytes4"
        }
      ],
      "name": "supportsInterface",
      "outputs": [
        {
          "internalType": "bool",
          "name": "",
          "type": "bool"
        }
      ],
      "stateMutability": "view",
      "type": "function"
    },
    {
      "inputs": [],
      "name": "symbol",
      "outputs": [
        {
          "internalType": "string",
          "name": "",
          "type": "string"
        }
      ],
      "stateMutability": "view",
      "type": "function"
    },
    {
      "inputs": [
        {
          "internalType": "uint256",
          "name": "index",
          "type": "uint256"
        }
      ],
      "name": "tokenByIndex",
      "outputs": [
        {
          "internalType": "uint256",
          "name": "",
          "type": "uint256"
        }
      ],
      "stateMutability": "view",
      "type": "function"
    },
    {
      "inputs": [
        {
          "internalType": "address",
          "name": "owner",
          "type": "address"
        },
        {
          "internalType": "uint256",
          "name": "index",
          "type": "uint256"
        }
      ],
      "name": "tokenOfOwnerByIndex",
      "outputs": [
        {
          "internalType": "uint256",
          "name": "",
          "type": "uint256"
        }
      ],
      "stateMutability": "view",
      "type": "function"
    },
    {
      "inputs": [
        {
          "internalType": "uint256",
          "name": "tokenId",
          "type": "uint256"
        }
      ],
      "name": "tokenURI",
      "outputs": [
        {
          "internalType": "string",
          "name": "",
          "type": "string"
        }
      ],
      "stateMutability": "view",
      "type": "function"
    },
    {
      "inputs": [],
      "name": "totalSupply",
      "outputs": [
        {
          "internalType": "uint256",
          "name": "",
          "type": "uint256"
        }
      ],
      "stateMutability": "view",
      "type": "function"
    },
    {
      "inputs": [
        {
          "internalType": "address",
          "name": "from",
          "type": "address"
        },
        {
          "internalType": "address",
          "name": "to",
          "type": "address"
        },
        {
          "internalType": "uint256",
          "name": "tokenId",
          "type": "uint256"
        }
      ],
      "name": "transferFrom",
      "outputs": [],
      "stateMutability": "nonpayable",
      "type": "function"
    },
    {
      "inputs": [
        {
          "internalType": "address",
          "name": "newOwner",
          "type": "address"
        }
      ],
      "name": "transferOwnership",
      "outputs": [],
      "stateMutability": "nonpayable",
      "type": "function"
    },
    {
      "inputs": [
        {
          "internalType": "uint256",
          "name": "_lotteryInterval",
          "type": "uint256"
        },
        {
          "internalType": "string",
          "name": "_timeUnit",
          "type": "string"
        }
      ],
      "name": "updateLotteryInterval",
      "outputs": [],
      "stateMutability": "nonpayable",
      "type": "function"
    },
    {
      "inputs": [
        {
          "internalType": "uint256",
          "name": "_lotteryID",
          "type": "uint256"
        }
      ],
      "name": "viewLottery",
      "outputs": [
        {
          "internalType": "uint256",
          "name": "ID",
          "type": "uint256"
        },
        {
          "internalType": "address payable",
          "name": "winner",
          "type": "address"
        },
        {
          "internalType": "uint256",
          "name": "noOfTicketsSold",
          "type": "uint256"
        },
        {
          "internalType": "uint256",
          "name": "winningTicket",
          "type": "uint256"
        },
        {
          "internalType": "uint256",
          "name": "amountInLottery",
          "type": "uint256"
        },
        {
          "internalType": "uint256",
          "name": "lotteryStartTime",
          "type": "uint256"
        },
        {
          "internalType": "uint256",
          "name": "lotteryEndTime",
          "type": "uint256"
        }
      ],
      "stateMutability": "view",
      "type": "function"
    },
    {
      "inputs": [],
      "name": "withdrawContractFunds",
      "outputs": [],
      "stateMutability": "payable",
      "type": "function"
    }
  ],
  "bytecode": "0x608060405273874069fa1eb16d44d622f2e0ca25eea172369bc1601160006101000a81548173ffffffffffffffffffffffffffffffffffffffff021916908373ffffffffffffffffffffffffffffffffffffffff1602179055506000601460006101000a81548160ff02191690836002811115620000a6577f4e487b7100000000000000000000000000000000000000000000000000000000600052602160045260246000fd5b0217905550348015620000b857600080fd5b50604051620063fc380380620063fc8339818101604052810190620000de919062000815565b6040518060400160405280600a81526020017f4c6f74746572794e4654000000000000000000000000000000000000000000008152506040518060400160405280600481526020017f6c4e465400000000000000000000000000000000000000000000000000000000815250816000908051906020019062000162929190620006dc565b5080600190805190602001906200017b929190620006dc565b5050506200019e620001926200043a60201b60201c565b6200044260201b60201c565b8060006040518060400160405280600781526020017f7365636f6e6473000000000000000000000000000000000000000000000000008152508051906020012082805190602001201415620001f757600190506200034e565b6040518060400160405280600781526020017f6d696e757465730000000000000000000000000000000000000000000000000081525080519060200120828051906020012014156200024d57600190506200034d565b6040518060400160405280600581526020017f686f7572730000000000000000000000000000000000000000000000000000008152508051906020012082805190602001201415620002a357600190506200034c565b6040518060400160405280600481526020017f64617973000000000000000000000000000000000000000000000000000000008152508051906020012082805190602001201415620002f957600190506200034b565b6040518060400160405280600581526020017f7765656b7300000000000000000000000000000000000000000000000000000081525080519060200120828051906020012014156200034a57600190505b5b5b5b5b8062000391576040517f08c379a00000000000000000000000000000000000000000000000000000000081526004016200038890620008ab565b60405180910390fd5b33601060006101000a81548173ffffffffffffffffffffffffffffffffffffffff021916908373ffffffffffffffffffffffffffffffffffffffff160217905550670de0b6b3a764000085620003e891906200093d565b600f81905550600062000401846200050860201b60201c565b905080856200041191906200093d565b600d819055506200042e600c620006c660201b620026701760201c565b50505050505062000b77565b600033905090565b6000600a60009054906101000a900473ffffffffffffffffffffffffffffffffffffffff16905081600a60006101000a81548173ffffffffffffffffffffffffffffffffffffffff021916908373ffffffffffffffffffffffffffffffffffffffff1602179055508173ffffffffffffffffffffffffffffffffffffffff168173ffffffffffffffffffffffffffffffffffffffff167f8be0079c531659141344cd1fd0a4f28419497f9722a3daafe3b4186f6b6457e060405160405180910390a35050565b6000806040518060400160405280600781526020017f7365636f6e6473000000000000000000000000000000000000000000000000008152508051906020012083805190602001201415620005615760019050620006bd565b6040518060400160405280600781526020017f6d696e75746573000000000000000000000000000000000000000000000000008152508051906020012083805190602001201415620005b757603c9050620006bc565b6040518060400160405280600581526020017f686f75727300000000000000000000000000000000000000000000000000000081525080519060200120838051906020012014156200060e57610e109050620006bb565b6040518060400160405280600481526020017f646179730000000000000000000000000000000000000000000000000000000081525080519060200120838051906020012014156200066657620151809050620006ba565b6040518060400160405280600581526020017f7765656b730000000000000000000000000000000000000000000000000000008152508051906020012083805190602001201415620006b95762093a8090505b5b5b5b5b80915050919050565b6001816000016000828254019250508190555050565b828054620006ea90620009de565b90600052602060002090601f0160209004810192826200070e57600085556200075a565b82601f106200072957805160ff19168380011785556200075a565b828001600101855582156200075a579182015b82811115620007595782518255916020019190600101906200073c565b5b5090506200076991906200076d565b5090565b5b80821115620007885760008160009055506001016200076e565b5090565b6000620007a36200079d84620008f6565b620008cd565b905082815260208101848484011115620007bc57600080fd5b620007c9848285620009a8565b509392505050565b600082601f830112620007e357600080fd5b8151620007f58482602086016200078c565b91505092915050565b6000815190506200080f8162000b5d565b92915050565b6000806000606084860312156200082b57600080fd5b60006200083b86828701620007fe565b93505060206200084e86828701620007fe565b925050604084015167ffffffffffffffff8111156200086c57600080fd5b6200087a86828701620007d1565b9150509250925092565b6000620008936050836200092c565b9150620008a08262000ae8565b606082019050919050565b60006020820190508181036000830152620008c68162000884565b9050919050565b6000620008d9620008ec565b9050620008e7828262000a14565b919050565b6000604051905090565b600067ffffffffffffffff82111562000914576200091362000aa8565b5b6200091f8262000ad7565b9050602081019050919050565b600082825260208201905092915050565b60006200094a826200099e565b915062000957836200099e565b9250817fffffffffffffffffffffffffffffffffffffffffffffffffffffffffffffffff048311821515161562000993576200099262000a4a565b5b828202905092915050565b6000819050919050565b60005b83811015620009c8578082015181840152602081019050620009ab565b83811115620009d8576000848401525b50505050565b60006002820490506001821680620009f757607f821691505b6020821081141562000a0e5762000a0d62000a79565b5b50919050565b62000a1f8262000ad7565b810181811067ffffffffffffffff8211171562000a415762000a4062000aa8565b5b80604052505050565b7f4e487b7100000000000000000000000000000000000000000000000000000000600052601160045260246000fd5b7f4e487b7100000000000000000000000000000000000000000000000000000000600052602260045260246000fd5b7f4e487b7100000000000000000000000000000000000000000000000000000000600052604160045260246000fd5b6000601f19601f8301169050919050565b7f696e636f72726563742074696d65556e69742e20506c6561736520696e70757460008201527f206f6e65206f663a207365636f6e64732c206d696e757465732c20686f75727360208201527f2c2064617973206f72207765656b732e00000000000000000000000000000000604082015250565b62000b68816200099e565b811462000b7457600080fd5b50565b6158758062000b876000396000f3fe6080604052600436106102045760003560e01c806352a8c4c41161011857806395d89b41116100a0578063b88d4fde1161006f578063b88d4fde1461071d578063c87b56dd14610746578063e7f43c6814610783578063e985e9c5146107ae578063f2fde38b146107eb57610204565b806395d89b4114610689578063a1f93056146106b4578063a22cb465146106cb578063b3ab15fb146106f457610204565b806367dd74ca116100e757806367dd74ca146105b157806370a08231146105cd578063715018a61461060a57806382f505c3146106215780638da5cb5b1461065e57610204565b806352a8c4c4146104f55780635d60db9e146105205780636352211e1461054957806365a2670f1461058657610204565b806318160ddd1161019b5780632423807a1161016a5780632423807a146103e45780632f745c59146104275780633ffdf1bc1461046457806342842e0e1461048f5780634f6ccce7146104b857610204565b806318160ddd1461035b5780631d54656f1461038657806321009423146103b157806323b872dd146103bb57610204565b8063095ea7b3116101d7578063095ea7b3146102c55780630c3f6acf146102ee5780630f1d80c214610319578063160344e21461034457610204565b806301ffc9a71461020957806306fdde03146102465780630755246314610271578063081812fc14610288575b600080fd5b34801561021557600080fd5b50610230600480360381019061022b919061420d565b610814565b60405161023d91906148b2565b60405180910390f35b34801561025257600080fd5b5061025b610826565b60405161026891906148e8565b60405180910390f35b34801561027d57600080fd5b506102866108b8565b005b34801561029457600080fd5b506102af60048036038101906102aa919061425f565b610cb3565b6040516102bc91906147c2565b60405180910390f35b3480156102d157600080fd5b506102ec60048036038101906102e791906141a8565b610cf9565b005b3480156102fa57600080fd5b50610303610e11565b60405161031091906148cd565b60405180910390f35b34801561032557600080fd5b5061032e610e24565b60405161033b9190614c0a565b60405180910390f35b34801561035057600080fd5b50610359610e2e565b005b34801561036757600080fd5b506103706110aa565b60405161037d9190614c0a565b60405180910390f35b34801561039257600080fd5b5061039b6110b7565b6040516103a89190614c0a565b60405180910390f35b6103b96110c1565b005b3480156103c757600080fd5b506103e260048036038101906103dd91906140a2565b6113ee565b005b3480156103f057600080fd5b5061040b6004803603810190610406919061425f565b61144e565b60405161041e9796959493929190614c4e565b60405180910390f35b34801561043357600080fd5b5061044e600480360381019061044991906141a8565b6114cc565b60405161045b9190614c0a565b60405180910390f35b34801561047057600080fd5b50610479611571565b6040516104869190614c0a565b60405180910390f35b34801561049b57600080fd5b506104b660048036038101906104b191906140a2565b6116b9565b005b3480156104c457600080fd5b506104df60048036038101906104da919061425f565b6116d9565b6040516104ec9190614c0a565b60405180910390f35b34801561050157600080fd5b5061050a611770565b6040516105179190614c0a565b60405180910390f35b34801561052c57600080fd5b50610547600480360381019061054291906142b1565b611776565b005b34801561055557600080fd5b50610570600480360381019061056b919061425f565b611b10565b60405161057d91906147c2565b60405180910390f35b34801561059257600080fd5b5061059b611bc2565b6040516105a891906148b2565b60405180910390f35b6105cb60048036038101906105c6919061425f565b611bd5565b005b3480156105d957600080fd5b506105f460048036038101906105ef919061403d565b611e4d565b6040516106019190614c0a565b60405180910390f35b34801561061657600080fd5b5061061f611f05565b005b34801561062d57600080fd5b50610648600480360381019061064391906141a8565b611f19565b6040516106559190614c0a565b60405180910390f35b34801561066a57600080fd5b50610673611f74565b60405161068091906147c2565b60405180910390f35b34801561069557600080fd5b5061069e611f9e565b6040516106ab91906148e8565b60405180910390f35b3480156106c057600080fd5b506106c9612030565b005b3480156106d757600080fd5b506106f260048036038101906106ed919061416c565b612339565b005b34801561070057600080fd5b5061071b6004803603810190610716919061403d565b61234f565b005b34801561072957600080fd5b50610744600480360381019061073f91906140f1565b612464565b005b34801561075257600080fd5b5061076d6004803603810190610768919061425f565b6124c6565b60405161077a91906148e8565b60405180910390f35b34801561078f57600080fd5b5061079861252e565b6040516107a591906147c2565b60405180910390f35b3480156107ba57600080fd5b506107d560048036038101906107d09190614066565b612558565b6040516107e291906148b2565b60405180910390f35b3480156107f757600080fd5b50610812600480360381019061080d919061403d565b6125ec565b005b600061081f82612686565b9050919050565b60606000805461083590615026565b80601f016020809104026020016040519081016040528092919081815260200182805461086190615026565b80156108ae5780601f10610883576101008083540402835291602001916108ae565b820191906000526020600020905b81548152906001019060200180831161089157829003601f168201915b5050505050905090565b601060009054906101000a900473ffffffffffffffffffffffffffffffffffffffff1673ffffffffffffffffffffffffffffffffffffffff163373ffffffffffffffffffffffffffffffffffffffff1614610948576040517f08c379a000000000000000000000000000000000000000000000000000000000815260040161093f90614baa565b60405180910390fd5b6002601460009054906101000a900460ff166002811115610992577f4e487b7100000000000000000000000000000000000000000000000000000000600052602160045260246000fd5b8160028111156109cb577f4e487b7100000000000000000000000000000000000000000000000000000000600052602160045260246000fd5b14610a0b576040517f08c379a0000000000000000000000000000000000000000000000000000000008152600401610a0290614a2a565b60405180910390fd5b600060126000600b54815260200190815260200160002090508060080160008260040154815260200190815260200160002060009054906101000a900473ffffffffffffffffffffffffffffffffffffffff168160010160006101000a81548173ffffffffffffffffffffffffffffffffffffffff021916908373ffffffffffffffffffffffffffffffffffffffff1602179055506000606460328360050154610ab59190614e75565b610abf9190614e44565b9050601160009054906101000a900473ffffffffffffffffffffffffffffffffffffffff1673ffffffffffffffffffffffffffffffffffffffff1663a9059cbb8360010160009054906101000a900473ffffffffffffffffffffffffffffffffffffffff16836040518363ffffffff1660e01b8152600401610b429291906147dd565b602060405180830381600087803b158015610b5c57600080fd5b505af1158015610b70573d6000803e3d6000fd5b505050506040513d601f19601f82011682018060405250810190610b9491906141e4565b610bd3576040517f08c379a0000000000000000000000000000000000000000000000000000000008152600401610bca906149ca565b60405180910390fd5b610c008260010160009054906101000a900473ffffffffffffffffffffffffffffffffffffffff16612700565b6000601460006101000a81548160ff02191690836002811115610c4c577f4e487b7100000000000000000000000000000000000000000000000000000000600052602160045260246000fd5b02179055507fb8309aa7b9899869450dc7af3ae733fd62c38dd03a1d7a15968463b4cdd015248260010160009054906101000a900473ffffffffffffffffffffffffffffffffffffffff1682604051610ca69291906147dd565b60405180910390a1505050565b6000610cbe826127b6565b6004600083815260200190815260200160002060009054906101000a900473ffffffffffffffffffffffffffffffffffffffff169050919050565b6000610d0482611b10565b90508073ffffffffffffffffffffffffffffffffffffffff168373ffffffffffffffffffffffffffffffffffffffff161415610d75576040517f08c379a0000000000000000000000000000000000000000000000000000000008152600401610d6c90614b2a565b60405180910390fd5b8073ffffffffffffffffffffffffffffffffffffffff16610d94612801565b73ffffffffffffffffffffffffffffffffffffffff161480610dc35750610dc281610dbd612801565b612558565b5b610e02576040517f08c379a0000000000000000000000000000000000000000000000000000000008152600401610df990614a8a565b60405180910390fd5b610e0c8383612809565b505050565b601460009054906101000a900460ff1681565b6000600f54905090565b6000601460009054906101000a900460ff166002811115610e78577f4e487b7100000000000000000000000000000000000000000000000000000000600052602160045260246000fd5b816002811115610eb1577f4e487b7100000000000000000000000000000000000000000000000000000000600052602160045260246000fd5b14610ef1576040517f08c379a0000000000000000000000000000000000000000000000000000000008152600401610ee890614a2a565b60405180910390fd5b601060009054906101000a900473ffffffffffffffffffffffffffffffffffffffff1673ffffffffffffffffffffffffffffffffffffffff163373ffffffffffffffffffffffffffffffffffffffff1614610f81576040517f08c379a0000000000000000000000000000000000000000000000000000000008152600401610f7890614baa565b60405180910390fd5b600e60009054906101000a900460ff16610fae57600b6000815480929190610fa890615089565b91905055505b60004290506000600d5482610fc39190614dee565b90506001601460006101000a81548160ff02191690836002811115611011577f4e487b7100000000000000000000000000000000000000000000000000000000600052602160045260246000fd5b0217905550600060126000600b5481526020019081526020016000209050600b5481600001819055508281600601819055508181600701819055506000600e60006101000a81548160ff0219169083151502179055507ffcdeb3394eefba8891818e18ed3c4d1aa8872705afa5819133971caea073dc1d600b54848460405161109c93929190614ced565b60405180910390a150505050565b6000600880549050905090565b6000600b54905090565b601060009054906101000a900473ffffffffffffffffffffffffffffffffffffffff1673ffffffffffffffffffffffffffffffffffffffff163373ffffffffffffffffffffffffffffffffffffffff1614611151576040517f08c379a000000000000000000000000000000000000000000000000000000000815260040161114890614baa565b60405180910390fd5b6000601460009054906101000a900460ff16600281111561119b577f4e487b7100000000000000000000000000000000000000000000000000000000600052602160045260246000fd5b8160028111156111d4577f4e487b7100000000000000000000000000000000000000000000000000000000600052602160045260246000fd5b14611214576040517f08c379a000000000000000000000000000000000000000000000000000000000815260040161120b90614a2a565b60405180910390fd5b6000601160009054906101000a900473ffffffffffffffffffffffffffffffffffffffff1673ffffffffffffffffffffffffffffffffffffffff166370a08231306040518263ffffffff1660e01b815260040161127191906147c2565b60206040518083038186803b15801561128957600080fd5b505afa15801561129d573d6000803e3d6000fd5b505050506040513d601f19601f820116820180604052508101906112c19190614288565b9050601160009054906101000a900473ffffffffffffffffffffffffffffffffffffffff1673ffffffffffffffffffffffffffffffffffffffff1663a9059cbb33836040518363ffffffff1660e01b8152600401611320929190614889565b602060405180830381600087803b15801561133a57600080fd5b505af115801561134e573d6000803e3d6000fd5b505050506040513d601f19601f8201168201806040525081019061137291906141e4565b6113b1576040517f08c379a00000000000000000000000000000000000000000000000000000000081526004016113a890614b4a565b60405180910390fd5b7f3bfcb3debef5a54696c26f8e801cbca29ab1ba6b6edf33bc4224b9f3db6d8ceb81336040516113e2929190614c25565b60405180910390a15050565b6113ff6113f9612801565b826128c2565b61143e576040517f08c379a000000000000000000000000000000000000000000000000000000000815260040161143590614bea565b60405180910390fd5b611449838383612957565b505050565b600080600080600080600080601260008a8152602001908152602001600020905080600001548160010160009054906101000a900473ffffffffffffffffffffffffffffffffffffffff1682600201548360040154846005015485600601548660070154975097509750975097509750975050919395979092949650565b60006114d783611e4d565b8210611518576040517f08c379a000000000000000000000000000000000000000000000000000000000815260040161150f9061492a565b60405180910390fd5b600660008473ffffffffffffffffffffffffffffffffffffffff1673ffffffffffffffffffffffffffffffffffffffff168152602001908152602001600020600083815260200190815260200160002054905092915050565b6000601060009054906101000a900473ffffffffffffffffffffffffffffffffffffffff1673ffffffffffffffffffffffffffffffffffffffff163373ffffffffffffffffffffffffffffffffffffffff1614611603576040517f08c379a00000000000000000000000000000000000000000000000000000000081526004016115fa90614baa565b60405180910390fd5b6000601160009054906101000a900473ffffffffffffffffffffffffffffffffffffffff1673ffffffffffffffffffffffffffffffffffffffff166370a08231306040518263ffffffff1660e01b815260040161166091906147c2565b60206040518083038186803b15801561167857600080fd5b505afa15801561168c573d6000803e3d6000fd5b505050506040513d601f19601f820116820180604052508101906116b09190614288565b90508091505090565b6116d483838360405180602001604052806000815250612464565b505050565b60006116e36110aa565b8210611724576040517f08c379a000000000000000000000000000000000000000000000000000000000815260040161171b90614b8a565b60405180910390fd5b6008828154811061175e577f4e487b7100000000000000000000000000000000000000000000000000000000600052603260045260246000fd5b90600052602060002001549050919050565b600d5481565b6000601460009054906101000a900460ff1660028111156117c0577f4e487b7100000000000000000000000000000000000000000000000000000000600052602160045260246000fd5b8160028111156117f9577f4e487b7100000000000000000000000000000000000000000000000000000000600052602160045260246000fd5b14611839576040517f08c379a000000000000000000000000000000000000000000000000000000000815260040161183090614a2a565b60405180910390fd5b601060009054906101000a900473ffffffffffffffffffffffffffffffffffffffff1673ffffffffffffffffffffffffffffffffffffffff163373ffffffffffffffffffffffffffffffffffffffff16146118c9576040517f08c379a00000000000000000000000000000000000000000000000000000000081526004016118c090614baa565b60405180910390fd5b8160006040518060400160405280600781526020017f7365636f6e64730000000000000000000000000000000000000000000000000081525080519060200120828051906020012014156119205760019050611a70565b6040518060400160405280600781526020017f6d696e757465730000000000000000000000000000000000000000000000000081525080519060200120828051906020012014156119745760019050611a6f565b6040518060400160405280600581526020017f686f75727300000000000000000000000000000000000000000000000000000081525080519060200120828051906020012014156119c85760019050611a6e565b6040518060400160405280600481526020017f64617973000000000000000000000000000000000000000000000000000000008152508051906020012082805190602001201415611a1c5760019050611a6d565b6040518060400160405280600581526020017f7765656b730000000000000000000000000000000000000000000000000000008152508051906020012082805190602001201415611a6c57600190505b5b5b5b5b80611ab0576040517f08c379a0000000000000000000000000000000000000000000000000000000008152600401611aa79061490a565b60405180910390fd5b6000611abb85612bbe565b90508086611ac99190614e75565b600d819055507f328eb2dcdfb50400d7fb484cb10d3065cc2c99cac781965962947e68611f4efa8686604051611b00929190614cbd565b60405180910390a1505050505050565b6000806002600084815260200190815260200160002060009054906101000a900473ffffffffffffffffffffffffffffffffffffffff169050600073ffffffffffffffffffffffffffffffffffffffff168173ffffffffffffffffffffffffffffffffffffffff161415611bb9576040517f08c379a0000000000000000000000000000000000000000000000000000000008152600401611bb090614b0a565b60405180910390fd5b80915050919050565b600e60009054906101000a900460ff1681565b6001601460009054906101000a900460ff166002811115611c1f577f4e487b7100000000000000000000000000000000000000000000000000000000600052602160045260246000fd5b816002811115611c58577f4e487b7100000000000000000000000000000000000000000000000000000000600052602160045260246000fd5b14611c98576040517f08c379a0000000000000000000000000000000000000000000000000000000008152600401611c8f90614a2a565b60405180910390fd5b60126000600b548152602001908152602001600020600701544210611cf2576040517f08c379a0000000000000000000000000000000000000000000000000000000008152600401611ce990614bca565b60405180910390fd5b601160009054906101000a900473ffffffffffffffffffffffffffffffffffffffff1673ffffffffffffffffffffffffffffffffffffffff166323b872dd333085600f54611d409190614e75565b6040518463ffffffff1660e01b8152600401611d5e93929190614806565b602060405180830381600087803b158015611d7857600080fd5b505af1158015611d8c573d6000803e3d6000fd5b505050506040513d601f19601f82011682018060405250810190611db091906141e4565b611def576040517f08c379a0000000000000000000000000000000000000000000000000000000008152600401611de690614b6a565b60405180910390fd5b611df882612d73565b600b543373ffffffffffffffffffffffffffffffffffffffff167fd7d247b583de1023852eef87b48f54354dbec771d01bc2cc49e96094efc322b984604051611e419190614c0a565b60405180910390a35050565b60008073ffffffffffffffffffffffffffffffffffffffff168273ffffffffffffffffffffffffffffffffffffffff161415611ebe576040517f08c379a0000000000000000000000000000000000000000000000000000000008152600401611eb590614a4a565b60405180910390fd5b600360008373ffffffffffffffffffffffffffffffffffffffff1673ffffffffffffffffffffffffffffffffffffffff168152602001908152602001600020549050919050565b611f0d612f43565b611f176000612fc1565b565b6000601360008473ffffffffffffffffffffffffffffffffffffffff1673ffffffffffffffffffffffffffffffffffffffff168152602001908152602001600020600083815260200190815260200160002054905092915050565b6000600a60009054906101000a900473ffffffffffffffffffffffffffffffffffffffff16905090565b606060018054611fad90615026565b80601f0160208091040260200160405190810160405280929190818152602001828054611fd990615026565b80156120265780601f10611ffb57610100808354040283529160200191612026565b820191906000526020600020905b81548152906001019060200180831161200957829003601f168201915b5050505050905090565b601060009054906101000a900473ffffffffffffffffffffffffffffffffffffffff1673ffffffffffffffffffffffffffffffffffffffff163373ffffffffffffffffffffffffffffffffffffffff16146120c0576040517f08c379a00000000000000000000000000000000000000000000000000000000081526004016120b790614baa565b60405180910390fd5b6001601460009054906101000a900460ff16600281111561210a577f4e487b7100000000000000000000000000000000000000000000000000000000600052602160045260246000fd5b816002811115612143577f4e487b7100000000000000000000000000000000000000000000000000000000600052602160045260246000fd5b14612183576040517f08c379a000000000000000000000000000000000000000000000000000000000815260040161217a90614a2a565b60405180910390fd5b60126000600b5481526020019081526020016000206007015442116121dd576040517f08c379a00000000000000000000000000000000000000000000000000000000081526004016121d490614aea565b60405180910390fd5b600060126000600b548152602001908152602001600020905060058160020154108061220d575060028160030154105b15612284576001600e60006101000a81548160ff0219169083151502179055506000601460006101000a81548160ff02191690836002811115612279577f4e487b7100000000000000000000000000000000000000000000000000000000600052602160045260246000fd5b021790555050612336565b60008160020154612293613087565b61229d91906150dc565b90508082600401819055506002601460006101000a81548160ff021916908360028111156122f4577f4e487b7100000000000000000000000000000000000000000000000000000000600052602160045260246000fd5b0217905550600b547ff494ea9784699a53043a8aeb590b5ee1a1b51e0a95d98eb717c908d820e57e658260405161232b9190614c0a565b60405180910390a250505b50565b61234b612344612801565b83836130d4565b5050565b612357612f43565b600073ffffffffffffffffffffffffffffffffffffffff168173ffffffffffffffffffffffffffffffffffffffff1614156123c7576040517f08c379a00000000000000000000000000000000000000000000000000000000081526004016123be90614a6a565b60405180910390fd5b80601060006101000a81548173ffffffffffffffffffffffffffffffffffffffff021916908373ffffffffffffffffffffffffffffffffffffffff1602179055507fda12ee837e6978172aaf54b16145ffe08414fd8710092ef033c71b8eb6ec189a601060009054906101000a900473ffffffffffffffffffffffffffffffffffffffff1660405161245991906147c2565b60405180910390a150565b61247561246f612801565b836128c2565b6124b4576040517f08c379a00000000000000000000000000000000000000000000000000000000081526004016124ab90614bea565b60405180910390fd5b6124c084848484613241565b50505050565b60606124d1826127b6565b60006124db61329d565b905060008151116124fb5760405180602001604052806000815250612526565b80612505846132b4565b604051602001612516929190614761565b6040516020818303038152906040525b915050919050565b6000601060009054906101000a900473ffffffffffffffffffffffffffffffffffffffff16905090565b6000600560008473ffffffffffffffffffffffffffffffffffffffff1673ffffffffffffffffffffffffffffffffffffffff16815260200190815260200160002060008373ffffffffffffffffffffffffffffffffffffffff1673ffffffffffffffffffffffffffffffffffffffff16815260200190815260200160002060009054906101000a900460ff16905092915050565b6125f4612f43565b600073ffffffffffffffffffffffffffffffffffffffff168173ffffffffffffffffffffffffffffffffffffffff161415612664576040517f08c379a000000000000000000000000000000000000000000000000000000000815260040161265b9061496a565b60405180910390fd5b61266d81612fc1565b50565b6001816000016000828254019250508190555050565b60007f780e9d63000000000000000000000000000000000000000000000000000000007bffffffffffffffffffffffffffffffffffffffffffffffffffffffff1916827bffffffffffffffffffffffffffffffffffffffffffffffffffffffff191614806126f957506126f882613461565b5b9050919050565b601060009054906101000a900473ffffffffffffffffffffffffffffffffffffffff1673ffffffffffffffffffffffffffffffffffffffff163373ffffffffffffffffffffffffffffffffffffffff1614612790576040517f08c379a000000000000000000000000000000000000000000000000000000000815260040161278790614baa565b60405180910390fd5b600061279c600c613543565b90506127a8600c612670565b6127b28282613551565b5050565b6127bf8161356f565b6127fe576040517f08c379a00000000000000000000000000000000000000000000000000000000081526004016127f590614b0a565b60405180910390fd5b50565b600033905090565b816004600083815260200190815260200160002060006101000a81548173ffffffffffffffffffffffffffffffffffffffff021916908373ffffffffffffffffffffffffffffffffffffffff160217905550808273ffffffffffffffffffffffffffffffffffffffff1661287c83611b10565b73ffffffffffffffffffffffffffffffffffffffff167f8c5be1e5ebec7d5bd14f71427d1e84f3dd0314c0f7b2291e5b200ac8c7c3b92560405160405180910390a45050565b6000806128ce83611b10565b90508073ffffffffffffffffffffffffffffffffffffffff168473ffffffffffffffffffffffffffffffffffffffff161480612910575061290f8185612558565b5b8061294e57508373ffffffffffffffffffffffffffffffffffffffff1661293684610cb3565b73ffffffffffffffffffffffffffffffffffffffff16145b91505092915050565b8273ffffffffffffffffffffffffffffffffffffffff1661297782611b10565b73ffffffffffffffffffffffffffffffffffffffff16146129cd576040517f08c379a00000000000000000000000000000000000000000000000000000000081526004016129c49061498a565b60405180910390fd5b600073ffffffffffffffffffffffffffffffffffffffff168273ffffffffffffffffffffffffffffffffffffffff161415612a3d576040517f08c379a0000000000000000000000000000000000000000000000000000000008152600401612a34906149ea565b60405180910390fd5b612a488383836135db565b612a53600082612809565b6001600360008573ffffffffffffffffffffffffffffffffffffffff1673ffffffffffffffffffffffffffffffffffffffff1681526020019081526020016000206000828254612aa39190614ecf565b925050819055506001600360008473ffffffffffffffffffffffffffffffffffffffff1673ffffffffffffffffffffffffffffffffffffffff1681526020019081526020016000206000828254612afa9190614dee565b92505081905550816002600083815260200190815260200160002060006101000a81548173ffffffffffffffffffffffffffffffffffffffff021916908373ffffffffffffffffffffffffffffffffffffffff160217905550808273ffffffffffffffffffffffffffffffffffffffff168473ffffffffffffffffffffffffffffffffffffffff167fddf252ad1be2c89b69c2b068fc378daa952ba7f163c4a11628f55a4df523b3ef60405160405180910390a4612bb98383836135eb565b505050565b6000806040518060400160405280600781526020017f7365636f6e6473000000000000000000000000000000000000000000000000008152508051906020012083805190602001201415612c155760019050612d6a565b6040518060400160405280600781526020017f6d696e75746573000000000000000000000000000000000000000000000000008152508051906020012083805190602001201415612c6957603c9050612d69565b6040518060400160405280600581526020017f686f7572730000000000000000000000000000000000000000000000000000008152508051906020012083805190602001201415612cbe57610e109050612d68565b6040518060400160405280600481526020017f64617973000000000000000000000000000000000000000000000000000000008152508051906020012083805190602001201415612d1457620151809050612d67565b6040518060400160405280600581526020017f7765656b730000000000000000000000000000000000000000000000000000008152508051906020012083805190602001201415612d665762093a8090505b5b5b5b5b80915050919050565b600060126000600b548152602001908152602001600020905060008160020154905060008382612da39190614dee565b905060008290505b81811015612e1a573384600801600083815260200190815260200160002060006101000a81548173ffffffffffffffffffffffffffffffffffffffff021916908373ffffffffffffffffffffffffffffffffffffffff1602179055508080612e1290615089565b915050612dab565b506001601360003373ffffffffffffffffffffffffffffffffffffffff1673ffffffffffffffffffffffffffffffffffffffff1681526020019081526020016000206000600b548152602001908152602001600020541015612e9157826003016000815480929190612e8b90615089565b91905055505b83601360003373ffffffffffffffffffffffffffffffffffffffff1673ffffffffffffffffffffffffffffffffffffffff1681526020019081526020016000206000600b5481526020019081526020016000206000828254612ef39190614dee565b9250508190555083836002016000828254612f0e9190614dee565b92505081905550600f5484612f239190614e75565b836005016000828254612f369190614dee565b9250508190555050505050565b612f4b612801565b73ffffffffffffffffffffffffffffffffffffffff16612f69611f74565b73ffffffffffffffffffffffffffffffffffffffff1614612fbf576040517f08c379a0000000000000000000000000000000000000000000000000000000008152600401612fb690614aca565b60405180910390fd5b565b6000600a60009054906101000a900473ffffffffffffffffffffffffffffffffffffffff16905081600a60006101000a81548173ffffffffffffffffffffffffffffffffffffffff021916908373ffffffffffffffffffffffffffffffffffffffff1602179055508173ffffffffffffffffffffffffffffffffffffffff168173ffffffffffffffffffffffffffffffffffffffff167f8be0079c531659141344cd1fd0a4f28419497f9722a3daafe3b4186f6b6457e060405160405180910390a35050565b6000444260126000600b548152602001908152602001600020600201546040516020016130b693929190614785565b6040516020818303038152906040528051906020012060001c905090565b8173ffffffffffffffffffffffffffffffffffffffff168373ffffffffffffffffffffffffffffffffffffffff161415613143576040517f08c379a000000000000000000000000000000000000000000000000000000000815260040161313a90614a0a565b60405180910390fd5b80600560008573ffffffffffffffffffffffffffffffffffffffff1673ffffffffffffffffffffffffffffffffffffffff16815260200190815260200160002060008473ffffffffffffffffffffffffffffffffffffffff1673ffffffffffffffffffffffffffffffffffffffff16815260200190815260200160002060006101000a81548160ff0219169083151502179055508173ffffffffffffffffffffffffffffffffffffffff168373ffffffffffffffffffffffffffffffffffffffff167f17307eab39ab6107e8899845ad3d59bd9653f200f220920489ca2b5937696c318360405161323491906148b2565b60405180910390a3505050565b61324c848484612957565b613258848484846135f0565b613297576040517f08c379a000000000000000000000000000000000000000000000000000000000815260040161328e9061494a565b60405180910390fd5b50505050565b606060405180602001604052806000815250905090565b606060008214156132fc576040518060400160405280600181526020017f3000000000000000000000000000000000000000000000000000000000000000815250905061345c565b600082905060005b6000821461332e57808061331790615089565b915050600a826133279190614e44565b9150613304565b60008167ffffffffffffffff811115613370577f4e487b7100000000000000000000000000000000000000000000000000000000600052604160045260246000fd5b6040519080825280601f01601f1916602001820160405280156133a25781602001600182028036833780820191505090505b5090505b60008514613455576001826133bb9190614ecf565b9150600a856133ca91906150dc565b60306133d69190614dee565b60f81b818381518110613412577f4e487b7100000000000000000000000000000000000000000000000000000000600052603260045260246000fd5b60200101907effffffffffffffffffffffffffffffffffffffffffffffffffffffffffffff1916908160001a905350600a8561344e9190614e44565b94506133a6565b8093505050505b919050565b60007f80ac58cd000000000000000000000000000000000000000000000000000000007bffffffffffffffffffffffffffffffffffffffffffffffffffffffff1916827bffffffffffffffffffffffffffffffffffffffffffffffffffffffff1916148061352c57507f5b5e139f000000000000000000000000000000000000000000000000000000007bffffffffffffffffffffffffffffffffffffffffffffffffffffffff1916827bffffffffffffffffffffffffffffffffffffffffffffffffffffffff1916145b8061353c575061353b82613787565b5b9050919050565b600081600001549050919050565b61356b8282604051806020016040528060008152506137f1565b5050565b60008073ffffffffffffffffffffffffffffffffffffffff166002600084815260200190815260200160002060009054906101000a900473ffffffffffffffffffffffffffffffffffffffff1673ffffffffffffffffffffffffffffffffffffffff1614159050919050565b6135e683838361384c565b505050565b505050565b60006136118473ffffffffffffffffffffffffffffffffffffffff16613960565b1561377a578373ffffffffffffffffffffffffffffffffffffffff1663150b7a0261363a612801565b8786866040518563ffffffff1660e01b815260040161365c949392919061483d565b602060405180830381600087803b15801561367657600080fd5b505af19250505080156136a757506040513d601f19601f820116820180604052508101906136a49190614236565b60015b61372a573d80600081146136d7576040519150601f19603f3d011682016040523d82523d6000602084013e6136dc565b606091505b50600081511415613722576040517f08c379a00000000000000000000000000000000000000000000000000000000081526004016137199061494a565b60405180910390fd5b805181602001fd5b63150b7a0260e01b7bffffffffffffffffffffffffffffffffffffffffffffffffffffffff1916817bffffffffffffffffffffffffffffffffffffffffffffffffffffffff19161491505061377f565b600190505b949350505050565b60007f01ffc9a7000000000000000000000000000000000000000000000000000000007bffffffffffffffffffffffffffffffffffffffffffffffffffffffff1916827bffffffffffffffffffffffffffffffffffffffffffffffffffffffff1916149050919050565b6137fb8383613983565b61380860008484846135f0565b613847576040517f08c379a000000000000000000000000000000000000000000000000000000000815260040161383e9061494a565b60405180910390fd5b505050565b613857838383613b5d565b600073ffffffffffffffffffffffffffffffffffffffff168373ffffffffffffffffffffffffffffffffffffffff16141561389a5761389581613b62565b6138d9565b8173ffffffffffffffffffffffffffffffffffffffff168373ffffffffffffffffffffffffffffffffffffffff16146138d8576138d78382613bab565b5b5b600073ffffffffffffffffffffffffffffffffffffffff168273ffffffffffffffffffffffffffffffffffffffff16141561391c5761391781613d18565b61395b565b8273ffffffffffffffffffffffffffffffffffffffff168273ffffffffffffffffffffffffffffffffffffffff161461395a576139598282613e5b565b5b5b505050565b6000808273ffffffffffffffffffffffffffffffffffffffff163b119050919050565b600073ffffffffffffffffffffffffffffffffffffffff168273ffffffffffffffffffffffffffffffffffffffff1614156139f3576040517f08c379a00000000000000000000000000000000000000000000000000000000081526004016139ea90614aaa565b60405180910390fd5b6139fc8161356f565b15613a3c576040517f08c379a0000000000000000000000000000000000000000000000000000000008152600401613a33906149aa565b60405180910390fd5b613a48600083836135db565b6001600360008473ffffffffffffffffffffffffffffffffffffffff1673ffffffffffffffffffffffffffffffffffffffff1681526020019081526020016000206000828254613a989190614dee565b92505081905550816002600083815260200190815260200160002060006101000a81548173ffffffffffffffffffffffffffffffffffffffff021916908373ffffffffffffffffffffffffffffffffffffffff160217905550808273ffffffffffffffffffffffffffffffffffffffff16600073ffffffffffffffffffffffffffffffffffffffff167fddf252ad1be2c89b69c2b068fc378daa952ba7f163c4a11628f55a4df523b3ef60405160405180910390a4613b59600083836135eb565b5050565b505050565b6008805490506009600083815260200190815260200160002081905550600881908060018154018082558091505060019003906000526020600020016000909190919091505550565b60006001613bb884611e4d565b613bc29190614ecf565b9050600060076000848152602001908152602001600020549050818114613ca7576000600660008673ffffffffffffffffffffffffffffffffffffffff1673ffffffffffffffffffffffffffffffffffffffff168152602001908152602001600020600084815260200190815260200160002054905080600660008773ffffffffffffffffffffffffffffffffffffffff1673ffffffffffffffffffffffffffffffffffffffff168152602001908152602001600020600084815260200190815260200160002081905550816007600083815260200190815260200160002081905550505b6007600084815260200190815260200160002060009055600660008573ffffffffffffffffffffffffffffffffffffffff1673ffffffffffffffffffffffffffffffffffffffff16815260200190815260200160002060008381526020019081526020016000206000905550505050565b60006001600880549050613d2c9190614ecf565b9050600060096000848152602001908152602001600020549050600060088381548110613d82577f4e487b7100000000000000000000000000000000000000000000000000000000600052603260045260246000fd5b906000526020600020015490508060088381548110613dca577f4e487b7100000000000000000000000000000000000000000000000000000000600052603260045260246000fd5b906000526020600020018190555081600960008381526020019081526020016000208190555060096000858152602001908152602001600020600090556008805480613e3f577f4e487b7100000000000000000000000000000000000000000000000000000000600052603160045260246000fd5b6001900381819060005260206000200160009055905550505050565b6000613e6683611e4d565b905081600660008573ffffffffffffffffffffffffffffffffffffffff1673ffffffffffffffffffffffffffffffffffffffff168152602001908152602001600020600083815260200190815260200160002081905550806007600084815260200190815260200160002081905550505050565b6000613eed613ee884614d49565b614d24565b905082815260208101848484011115613f0557600080fd5b613f10848285614fe4565b509392505050565b6000613f2b613f2684614d7a565b614d24565b905082815260208101848484011115613f4357600080fd5b613f4e848285614fe4565b509392505050565b600081359050613f65816157e3565b92915050565b600081359050613f7a816157fa565b92915050565b600081519050613f8f816157fa565b92915050565b600081359050613fa481615811565b92915050565b600081519050613fb981615811565b92915050565b600082601f830112613fd057600080fd5b8135613fe0848260208601613eda565b91505092915050565b600082601f830112613ffa57600080fd5b813561400a848260208601613f18565b91505092915050565b60008135905061402281615828565b92915050565b60008151905061403781615828565b92915050565b60006020828403121561404f57600080fd5b600061405d84828501613f56565b91505092915050565b6000806040838503121561407957600080fd5b600061408785828601613f56565b925050602061409885828601613f56565b9150509250929050565b6000806000606084860312156140b757600080fd5b60006140c586828701613f56565b93505060206140d686828701613f56565b92505060406140e786828701614013565b9150509250925092565b6000806000806080858703121561410757600080fd5b600061411587828801613f56565b945050602061412687828801613f56565b935050604061413787828801614013565b925050606085013567ffffffffffffffff81111561415457600080fd5b61416087828801613fbf565b91505092959194509250565b6000806040838503121561417f57600080fd5b600061418d85828601613f56565b925050602061419e85828601613f6b565b9150509250929050565b600080604083850312156141bb57600080fd5b60006141c985828601613f56565b92505060206141da85828601614013565b9150509250929050565b6000602082840312156141f657600080fd5b600061420484828501613f80565b91505092915050565b60006020828403121561421f57600080fd5b600061422d84828501613f95565b91505092915050565b60006020828403121561424857600080fd5b600061425684828501613faa565b91505092915050565b60006020828403121561427157600080fd5b600061427f84828501614013565b91505092915050565b60006020828403121561429a57600080fd5b60006142a884828501614028565b91505092915050565b600080604083850312156142c457600080fd5b60006142d285828601614013565b925050602083013567ffffffffffffffff8111156142ef57600080fd5b6142fb85828601613fe9565b9150509250929050565b61430e81614f9c565b82525050565b61431d81614f15565b82525050565b61432c81614f03565b82525050565b61433b81614f27565b82525050565b600061434c82614dab565b6143568185614dc1565b9350614366818560208601614ff3565b61436f816151f8565b840191505092915050565b61438381614fae565b82525050565b600061439482614db6565b61439e8185614dd2565b93506143ae818560208601614ff3565b6143b7816151f8565b840191505092915050565b60006143cd82614db6565b6143d78185614de3565b93506143e7818560208601614ff3565b80840191505092915050565b6000614400605083614dd2565b915061440b82615209565b606082019050919050565b6000614423602b83614dd2565b915061442e8261527e565b604082019050919050565b6000614446603283614dd2565b9150614451826152cd565b604082019050919050565b6000614469602683614dd2565b91506144748261531c565b604082019050919050565b600061448c602583614dd2565b91506144978261536b565b604082019050919050565b60006144af601c83614dd2565b91506144ba826153ba565b602082019050919050565b60006144d2601383614dd2565b91506144dd826153e3565b602082019050919050565b60006144f5602483614dd2565b91506145008261540c565b604082019050919050565b6000614518601983614dd2565b91506145238261545b565b602082019050919050565b600061453b602183614dd2565b915061454682615484565b604082019050919050565b600061455e602983614dd2565b9150614569826154d3565b604082019050919050565b6000614581601583614dd2565b915061458c82615522565b602082019050919050565b60006145a4603e83614dd2565b91506145af8261554b565b604082019050919050565b60006145c7602083614dd2565b91506145d28261559a565b602082019050919050565b60006145ea602083614dd2565b91506145f5826155c3565b602082019050919050565b600061460d601583614dd2565b9150614618826155ec565b602082019050919050565b6000614630601883614dd2565b915061463b82615615565b602082019050919050565b6000614653602183614dd2565b915061465e8261563e565b604082019050919050565b6000614676601883614dd2565b91506146818261568d565b602082019050919050565b6000614699601083614dd2565b91506146a4826156b6565b602082019050919050565b60006146bc602c83614dd2565b91506146c7826156df565b604082019050919050565b60006146df600c83614dd2565b91506146ea8261572e565b602082019050919050565b6000614702601a83614dd2565b915061470d82615757565b602082019050919050565b6000614725602e83614dd2565b915061473082615780565b604082019050919050565b61474481614f92565b82525050565b61475b61475682614f92565b6150d2565b82525050565b600061476d82856143c2565b915061477982846143c2565b91508190509392505050565b6000614791828661474a565b6020820191506147a1828561474a565b6020820191506147b1828461474a565b602082019150819050949350505050565b60006020820190506147d76000830184614323565b92915050565b60006040820190506147f26000830185614305565b6147ff602083018461473b565b9392505050565b600060608201905061481b6000830186614323565b6148286020830185614323565b614835604083018461473b565b949350505050565b60006080820190506148526000830187614323565b61485f6020830186614323565b61486c604083018561473b565b818103606083015261487e8184614341565b905095945050505050565b600060408201905061489e6000830185614323565b6148ab602083018461473b565b9392505050565b60006020820190506148c76000830184614332565b92915050565b60006020820190506148e2600083018461437a565b92915050565b600060208201905081810360008301526149028184614389565b905092915050565b60006020820190508181036000830152614923816143f3565b9050919050565b6000602082019050818103600083015261494381614416565b9050919050565b6000602082019050818103600083015261496381614439565b9050919050565b600060208201905081810360008301526149838161445c565b9050919050565b600060208201905081810360008301526149a38161447f565b9050919050565b600060208201905081810360008301526149c3816144a2565b9050919050565b600060208201905081810360008301526149e3816144c5565b9050919050565b60006020820190508181036000830152614a03816144e8565b9050919050565b60006020820190508181036000830152614a238161450b565b9050919050565b60006020820190508181036000830152614a438161452e565b9050919050565b60006020820190508181036000830152614a6381614551565b9050919050565b60006020820190508181036000830152614a8381614574565b9050919050565b60006020820190508181036000830152614aa381614597565b9050919050565b60006020820190508181036000830152614ac3816145ba565b9050919050565b60006020820190508181036000830152614ae3816145dd565b9050919050565b60006020820190508181036000830152614b0381614600565b9050919050565b60006020820190508181036000830152614b2381614623565b9050919050565b60006020820190508181036000830152614b4381614646565b9050919050565b60006020820190508181036000830152614b6381614669565b9050919050565b60006020820190508181036000830152614b838161468c565b9050919050565b60006020820190508181036000830152614ba3816146af565b9050919050565b60006020820190508181036000830152614bc3816146d2565b9050919050565b60006020820190508181036000830152614be3816146f5565b9050919050565b60006020820190508181036000830152614c0381614718565b9050919050565b6000602082019050614c1f600083018461473b565b92915050565b6000604082019050614c3a600083018561473b565b614c476020830184614323565b9392505050565b600060e082019050614c63600083018a61473b565b614c706020830189614314565b614c7d604083018861473b565b614c8a606083018761473b565b614c97608083018661473b565b614ca460a083018561473b565b614cb160c083018461473b565b98975050505050505050565b6000604082019050614cd2600083018561473b565b8181036020830152614ce48184614389565b90509392505050565b6000606082019050614d02600083018661473b565b614d0f602083018561473b565b614d1c604083018461473b565b949350505050565b6000614d2e614d3f565b9050614d3a8282615058565b919050565b6000604051905090565b600067ffffffffffffffff821115614d6457614d636151c9565b5b614d6d826151f8565b9050602081019050919050565b600067ffffffffffffffff821115614d9557614d946151c9565b5b614d9e826151f8565b9050602081019050919050565b600081519050919050565b600081519050919050565b600082825260208201905092915050565b600082825260208201905092915050565b600081905092915050565b6000614df982614f92565b9150614e0483614f92565b9250827fffffffffffffffffffffffffffffffffffffffffffffffffffffffffffffffff03821115614e3957614e3861510d565b5b828201905092915050565b6000614e4f82614f92565b9150614e5a83614f92565b925082614e6a57614e6961513c565b5b828204905092915050565b6000614e8082614f92565b9150614e8b83614f92565b9250817fffffffffffffffffffffffffffffffffffffffffffffffffffffffffffffffff0483118215151615614ec457614ec361510d565b5b828202905092915050565b6000614eda82614f92565b9150614ee583614f92565b925082821015614ef857614ef761510d565b5b828203905092915050565b6000614f0e82614f72565b9050919050565b6000614f2082614f72565b9050919050565b60008115159050919050565b60007fffffffff0000000000000000000000000000000000000000000000000000000082169050919050565b6000819050614f6d826157cf565b919050565b600073ffffffffffffffffffffffffffffffffffffffff82169050919050565b6000819050919050565b6000614fa782614fc0565b9050919050565b6000614fb982614f5f565b9050919050565b6000614fcb82614fd2565b9050919050565b6000614fdd82614f72565b9050919050565b82818337600083830152505050565b60005b83811015615011578082015181840152602081019050614ff6565b83811115615020576000848401525b50505050565b6000600282049050600182168061503e57607f821691505b602082108114156150525761505161519a565b5b50919050565b615061826151f8565b810181811067ffffffffffffffff821117156150805761507f6151c9565b5b80604052505050565b600061509482614f92565b91507fffffffffffffffffffffffffffffffffffffffffffffffffffffffffffffffff8214156150c7576150c661510d565b5b600182019050919050565b6000819050919050565b60006150e782614f92565b91506150f283614f92565b9250826151025761510161513c565b5b828206905092915050565b7f4e487b7100000000000000000000000000000000000000000000000000000000600052601160045260246000fd5b7f4e487b7100000000000000000000000000000000000000000000000000000000600052601260045260246000fd5b7f4e487b7100000000000000000000000000000000000000000000000000000000600052602160045260246000fd5b7f4e487b7100000000000000000000000000000000000000000000000000000000600052602260045260246000fd5b7f4e487b7100000000000000000000000000000000000000000000000000000000600052604160045260246000fd5b6000601f19601f8301169050919050565b7f696e636f72726563742074696d65556e69742e20506c6561736520696e70757460008201527f206f6e65206f663a207365636f6e64732c206d696e757465732c20686f75727360208201527f2c2064617973206f72207765656b732e00000000000000000000000000000000604082015250565b7f455243373231456e756d657261626c653a206f776e657220696e646578206f7560008201527f74206f6620626f756e6473000000000000000000000000000000000000000000602082015250565b7f4552433732313a207472616e7366657220746f206e6f6e20455243373231526560008201527f63656976657220696d706c656d656e7465720000000000000000000000000000602082015250565b7f4f776e61626c653a206e6577206f776e657220697320746865207a65726f206160008201527f6464726573730000000000000000000000000000000000000000000000000000602082015250565b7f4552433732313a207472616e736665722066726f6d20696e636f72726563742060008201527f6f776e6572000000000000000000000000000000000000000000000000000000602082015250565b7f4552433732313a20746f6b656e20616c7265616479206d696e74656400000000600082015250565b7f7061796f757420756e7375636365737366756c00000000000000000000000000600082015250565b7f4552433732313a207472616e7366657220746f20746865207a65726f2061646460008201527f7265737300000000000000000000000000000000000000000000000000000000602082015250565b7f4552433732313a20617070726f766520746f2063616c6c657200000000000000600082015250565b7f63757272656e7420737461746520646f6573206e6f7420616c6c6f772074686960008201527f7300000000000000000000000000000000000000000000000000000000000000602082015250565b7f4552433732313a2061646472657373207a65726f206973206e6f74206120766160008201527f6c6964206f776e65720000000000000000000000000000000000000000000000602082015250565b7f41646472657373206d7573742062652076616c69640000000000000000000000600082015250565b7f4552433732313a20617070726f76652063616c6c6572206973206e6f7420746f60008201527f6b656e206f776e6572206e6f7220617070726f76656420666f7220616c6c0000602082015250565b7f4552433732313a206d696e7420746f20746865207a65726f2061646472657373600082015250565b7f4f776e61626c653a2063616c6c6572206973206e6f7420746865206f776e6572600082015250565b7f4c6f747465727920686173206e6f7420656e6465640000000000000000000000600082015250565b7f4552433732313a20696e76616c696420746f6b656e2049440000000000000000600082015250565b7f4552433732313a20617070726f76616c20746f2063757272656e74206f776e6560008201527f7200000000000000000000000000000000000000000000000000000000000000602082015250565b7f556e61626c6520746f2077697468647261772066756e64730000000000000000600082015250565b7f5472616e73666572206661696c65642e00000000000000000000000000000000600082015250565b7f455243373231456e756d657261626c653a20676c6f62616c20696e646578206f60008201527f7574206f6620626f756e64730000000000000000000000000000000000000000602082015250565b7f4e6f74204f70657261746f720000000000000000000000000000000000000000600082015250565b7f4c6f74746572792068617320616c726561647920656e64656421000000000000600082015250565b7f4552433732313a2063616c6c6572206973206e6f7420746f6b656e206f776e6560008201527f72206e6f7220617070726f766564000000000000000000000000000000000000602082015250565b600381106157e0576157df61516b565b5b50565b6157ec81614f03565b81146157f757600080fd5b50565b61580381614f27565b811461580e57600080fd5b50565b61581a81614f33565b811461582557600080fd5b50565b61583181614f92565b811461583c57600080fd5b5056fea26469706673582212209a92947bf9c00a0b790f2f00824d545d78c0ac10ab3c6ca4e21a8f11fdede98764736f6c63430008040033",
  "linkReferences": {},
  "deployedLinkReferences": {}
}