{
  "_format": "hh-sol-artifact-1",
  "contractName": "NFTLottery",
  "sourceName": "contracts/NFTLottery.sol",
  "abi": [
    {
      "inputs": [
        {
          "internalType": "uint256",
          "name": "_ticketPrice",
          "type": "uint256"
        },
        {
          "internalType": "uint256",
          "name": "_lotteryInterval",
          "type": "uint256"
        },
        {
          "internalType": "string",
          "name": "_timeUnit",
          "type": "string"
        }
      ],
      "stateMutability": "nonpayable",
      "type": "constructor"
    },
    {
      "anonymous": false,
      "inputs": [
        {
          "indexed": true,
          "internalType": "address",
          "name": "owner",
          "type": "address"
        },
        {
          "indexed": true,
          "internalType": "address",
          "name": "approved",
          "type": "address"
        },
        {
          "indexed": true,
          "internalType": "uint256",
          "name": "tokenId",
          "type": "uint256"
        }
      ],
      "name": "Approval",
      "type": "event"
    },
    {
      "anonymous": false,
      "inputs": [
        {
          "indexed": true,
          "internalType": "address",
          "name": "owner",
          "type": "address"
        },
        {
          "indexed": true,
          "internalType": "address",
          "name": "operator",
          "type": "address"
        },
        {
          "indexed": false,
          "internalType": "bool",
          "name": "approved",
          "type": "bool"
        }
      ],
      "name": "ApprovalForAll",
      "type": "event"
    },
    {
      "anonymous": false,
      "inputs": [
        {
          "indexed": true,
          "internalType": "uint256",
          "name": "lotteryId",
          "type": "uint256"
        },
        {
          "indexed": false,
          "internalType": "uint256",
          "name": "finalNumber",
          "type": "uint256"
        }
      ],
      "name": "LotteryNumberGenerated",
      "type": "event"
    },
    {
      "anonymous": false,
      "inputs": [
        {
          "indexed": false,
          "internalType": "uint256",
          "name": "lotteryID",
          "type": "uint256"
        },
        {
          "indexed": false,
          "internalType": "uint256",
          "name": "lotteryStartTime",
          "type": "uint256"
        },
        {
          "indexed": false,
          "internalType": "uint256",
          "name": "lotteryEndTime",
          "type": "uint256"
        }
      ],
      "name": "LotteryStarted",
      "type": "event"
    },
    {
      "anonymous": false,
      "inputs": [
        {
          "indexed": false,
          "internalType": "uint256",
          "name": "interval",
          "type": "uint256"
        },
        {
          "indexed": false,
          "internalType": "string",
          "name": "timeUnit",
          "type": "string"
        }
      ],
      "name": "NewLotteryInterval",
      "type": "event"
    },
    {
      "anonymous": false,
      "inputs": [
        {
          "indexed": false,
          "internalType": "address",
          "name": "operatorAddress",
          "type": "address"
        }
      ],
      "name": "NewOperator",
      "type": "event"
    },
    {
      "anonymous": false,
      "inputs": [
        {
          "indexed": true,
          "internalType": "address",
          "name": "previousOwner",
          "type": "address"
        },
        {
          "indexed": true,
          "internalType": "address",
          "name": "newOwner",
          "type": "address"
        }
      ],
      "name": "OwnershipTransferred",
      "type": "event"
    },
    {
      "anonymous": false,
      "inputs": [
        {
          "indexed": true,
          "internalType": "address",
          "name": "buyer",
          "type": "address"
        },
        {
          "indexed": true,
          "internalType": "uint256",
          "name": "lotteryId",
          "type": "uint256"
        },
        {
          "indexed": false,
          "internalType": "uint256",
          "name": "numberTicket",
          "type": "uint256"
        }
      ],
      "name": "TicketsPurchase",
      "type": "event"
    },
    {
      "anonymous": false,
      "inputs": [
        {
          "indexed": true,
          "internalType": "address",
          "name": "from",
          "type": "address"
        },
        {
          "indexed": true,
          "internalType": "address",
          "name": "to",
          "type": "address"
        },
        {
          "indexed": true,
          "internalType": "uint256",
          "name": "tokenId",
          "type": "uint256"
        }
      ],
      "name": "Transfer",
      "type": "event"
    },
    {
      "anonymous": false,
      "inputs": [
        {
          "indexed": false,
          "internalType": "address",
          "name": "winner",
          "type": "address"
        },
        {
          "indexed": false,
          "internalType": "uint256",
          "name": "amount",
          "type": "uint256"
        }
      ],
      "name": "WinnersAwarded",
      "type": "event"
    },
    {
      "anonymous": false,
      "inputs": [
        {
          "indexed": false,
          "internalType": "uint256",
          "name": "amount",
          "type": "uint256"
        },
        {
          "indexed": false,
          "internalType": "address",
          "name": "operator",
          "type": "address"
        }
      ],
      "name": "WithdrawalComplete",
      "type": "event"
    },
    {
      "inputs": [
        {
          "internalType": "address",
          "name": "to",
          "type": "address"
        },
        {
          "internalType": "uint256",
          "name": "tokenId",
          "type": "uint256"
        }
      ],
      "name": "approve",
      "outputs": [],
      "stateMutability": "nonpayable",
      "type": "function"
    },
    {
      "inputs": [
        {
          "internalType": "address",
          "name": "owner",
          "type": "address"
        }
      ],
      "name": "balanceOf",
      "outputs": [
        {
          "internalType": "uint256",
          "name": "",
          "type": "uint256"
        }
      ],
      "stateMutability": "view",
      "type": "function"
    },
    {
      "inputs": [
        {
          "internalType": "uint256",
          "name": "_noOfTickets",
          "type": "uint256"
        }
      ],
      "name": "buyTicket",
      "outputs": [],
      "stateMutability": "nonpayable",
      "type": "function"
    },
    {
      "inputs": [],
      "name": "checkConractFunds",
      "outputs": [
        {
          "internalType": "uint256",
          "name": "",
          "type": "uint256"
        }
      ],
      "stateMutability": "view",
      "type": "function"
    },
    {
      "inputs": [],
      "name": "checkTicketPrice",
      "outputs": [
        {
          "internalType": "uint256",
          "name": "",
          "type": "uint256"
        }
      ],
      "stateMutability": "view",
      "type": "function"
    },
    {
      "inputs": [],
      "name": "currentState",
      "outputs": [
        {
          "internalType": "enum NFTLottery.State",
          "name": "",
          "type": "uint8"
        }
      ],
      "stateMutability": "view",
      "type": "function"
    },
    {
      "inputs": [
        {
          "internalType": "uint256",
          "name": "tokenId",
          "type": "uint256"
        }
      ],
      "name": "getApproved",
      "outputs": [
        {
          "internalType": "address",
          "name": "",
          "type": "address"
        }
      ],
      "stateMutability": "view",
      "type": "function"
    },
    {
      "inputs": [],
      "name": "getLotteryID",
      "outputs": [
        {
          "internalType": "uint256",
          "name": "",
          "type": "uint256"
        }
      ],
      "stateMutability": "view",
      "type": "function"
    },
    {
      "inputs": [],
      "name": "getOperator",
      "outputs": [
        {
          "internalType": "address",
          "name": "",
          "type": "address"
        }
      ],
      "stateMutability": "view",
      "type": "function"
    },
    {
      "inputs": [
        {
          "internalType": "address",
          "name": "_player",
          "type": "address"
        },
        {
          "internalType": "uint256",
          "name": "_lotteryID",
          "type": "uint256"
        }
      ],
      "name": "getPlayerTicketCount",
      "outputs": [
        {
          "internalType": "uint256",
          "name": "",
          "type": "uint256"
        }
      ],
      "stateMutability": "view",
      "type": "function"
    },
    {
      "inputs": [],
      "name": "getWinningTickets",
      "outputs": [],
      "stateMutability": "nonpayable",
      "type": "function"
    },
    {
      "inputs": [
        {
          "internalType": "address",
          "name": "owner",
          "type": "address"
        },
        {
          "internalType": "address",
          "name": "operator",
          "type": "address"
        }
      ],
      "name": "isApprovedForAll",
      "outputs": [
        {
          "internalType": "bool",
          "name": "",
          "type": "bool"
        }
      ],
      "stateMutability": "view",
      "type": "function"
    },
    {
      "inputs": [],
      "name": "lotteryInterval",
      "outputs": [
        {
          "internalType": "uint256",
          "name": "",
          "type": "uint256"
        }
      ],
      "stateMutability": "view",
      "type": "function"
    },
    {
      "inputs": [],
      "name": "name",
      "outputs": [
        {
          "internalType": "string",
          "name": "",
          "type": "string"
        }
      ],
      "stateMutability": "view",
      "type": "function"
    },
    {
      "inputs": [],
      "name": "owner",
      "outputs": [
        {
          "internalType": "address",
          "name": "",
          "type": "address"
        }
      ],
      "stateMutability": "view",
      "type": "function"
    },
    {
      "inputs": [
        {
          "internalType": "uint256",
          "name": "tokenId",
          "type": "uint256"
        }
      ],
      "name": "ownerOf",
      "outputs": [
        {
          "internalType": "address",
          "name": "",
          "type": "address"
        }
      ],
      "stateMutability": "view",
      "type": "function"
    },
    {
      "inputs": [],
      "name": "payoutWinner",
      "outputs": [],
      "stateMutability": "nonpayable",
      "type": "function"
    },
    {
      "inputs": [],
      "name": "renounceOwnership",
      "outputs": [],
      "stateMutability": "nonpayable",
      "type": "function"
    },
    {
      "inputs": [],
      "name": "rolloverStatus",
      "outputs": [
        {
          "internalType": "bool",
          "name": "",
          "type": "bool"
        }
      ],
      "stateMutability": "view",
      "type": "function"
    },
    {
      "inputs": [
        {
          "internalType": "address",
          "name": "from",
          "type": "address"
        },
        {
          "internalType": "address",
          "name": "to",
          "type": "address"
        },
        {
          "internalType": "uint256",
          "name": "tokenId",
          "type": "uint256"
        }
      ],
      "name": "safeTransferFrom",
      "outputs": [],
      "stateMutability": "nonpayable",
      "type": "function"
    },
    {
      "inputs": [
        {
          "internalType": "address",
          "name": "from",
          "type": "address"
        },
        {
          "internalType": "address",
          "name": "to",
          "type": "address"
        },
        {
          "internalType": "uint256",
          "name": "tokenId",
          "type": "uint256"
        },
        {
          "internalType": "bytes",
          "name": "data",
          "type": "bytes"
        }
      ],
      "name": "safeTransferFrom",
      "outputs": [],
      "stateMutability": "nonpayable",
      "type": "function"
    },
    {
      "inputs": [
        {
          "internalType": "address",
          "name": "operator",
          "type": "address"
        },
        {
          "internalType": "bool",
          "name": "approved",
          "type": "bool"
        }
      ],
      "name": "setApprovalForAll",
      "outputs": [],
      "stateMutability": "nonpayable",
      "type": "function"
    },
    {
      "inputs": [
        {
          "internalType": "address",
          "name": "_operatorAddress",
          "type": "address"
        }
      ],
      "name": "setOperator",
      "outputs": [],
      "stateMutability": "nonpayable",
      "type": "function"
    },
    {
      "inputs": [],
      "name": "startLottery",
      "outputs": [],
      "stateMutability": "nonpayable",
      "type": "function"
    },
    {
      "inputs": [
        {
          "internalType": "bytes4",
          "name": "interfaceId",
          "type": "bytes4"
        }
      ],
      "name": "supportsInterface",
      "outputs": [
        {
          "internalType": "bool",
          "name": "",
          "type": "bool"
        }
      ],
      "stateMutability": "view",
      "type": "function"
    },
    {
      "inputs": [],
      "name": "symbol",
      "outputs": [
        {
          "internalType": "string",
          "name": "",
          "type": "string"
        }
      ],
      "stateMutability": "view",
      "type": "function"
    },
    {
      "inputs": [
        {
          "internalType": "uint256",
          "name": "index",
          "type": "uint256"
        }
      ],
      "name": "tokenByIndex",
      "outputs": [
        {
          "internalType": "uint256",
          "name": "",
          "type": "uint256"
        }
      ],
      "stateMutability": "view",
      "type": "function"
    },
    {
      "inputs": [
        {
          "internalType": "address",
          "name": "owner",
          "type": "address"
        },
        {
          "internalType": "uint256",
          "name": "index",
          "type": "uint256"
        }
      ],
      "name": "tokenOfOwnerByIndex",
      "outputs": [
        {
          "internalType": "uint256",
          "name": "",
          "type": "uint256"
        }
      ],
      "stateMutability": "view",
      "type": "function"
    },
    {
      "inputs": [
        {
          "internalType": "uint256",
          "name": "tokenId",
          "type": "uint256"
        }
      ],
      "name": "tokenURI",
      "outputs": [
        {
          "internalType": "string",
          "name": "",
          "type": "string"
        }
      ],
      "stateMutability": "view",
      "type": "function"
    },
    {
      "inputs": [],
      "name": "totalSupply",
      "outputs": [
        {
          "internalType": "uint256",
          "name": "",
          "type": "uint256"
        }
      ],
      "stateMutability": "view",
      "type": "function"
    },
    {
      "inputs": [
        {
          "internalType": "address",
          "name": "from",
          "type": "address"
        },
        {
          "internalType": "address",
          "name": "to",
          "type": "address"
        },
        {
          "internalType": "uint256",
          "name": "tokenId",
          "type": "uint256"
        }
      ],
      "name": "transferFrom",
      "outputs": [],
      "stateMutability": "nonpayable",
      "type": "function"
    },
    {
      "inputs": [
        {
          "internalType": "address",
          "name": "newOwner",
          "type": "address"
        }
      ],
      "name": "transferOwnership",
      "outputs": [],
      "stateMutability": "nonpayable",
      "type": "function"
    },
    {
      "inputs": [
        {
          "internalType": "uint256",
          "name": "_lotteryInterval",
          "type": "uint256"
        },
        {
          "internalType": "string",
          "name": "_timeUnit",
          "type": "string"
        }
      ],
      "name": "updateLotteryInterval",
      "outputs": [],
      "stateMutability": "nonpayable",
      "type": "function"
    },
    {
      "inputs": [
        {
          "internalType": "uint256",
          "name": "_lotteryID",
          "type": "uint256"
        }
      ],
      "name": "viewLottery",
      "outputs": [
        {
          "internalType": "uint256",
          "name": "ID",
          "type": "uint256"
        },
        {
          "internalType": "address payable",
          "name": "winner",
          "type": "address"
        },
        {
          "internalType": "uint256",
          "name": "noOfTicketsSold",
          "type": "uint256"
        },
        {
          "internalType": "uint256",
          "name": "winningTicket",
          "type": "uint256"
        },
        {
          "internalType": "uint256",
          "name": "amountInLottery",
          "type": "uint256"
        },
        {
          "internalType": "uint256",
          "name": "lotteryStartTime",
          "type": "uint256"
        },
        {
          "internalType": "uint256",
          "name": "lotteryEndTime",
          "type": "uint256"
        }
      ],
      "stateMutability": "view",
      "type": "function"
    },
    {
      "inputs": [],
      "name": "withdrawContractFunds",
      "outputs": [],
      "stateMutability": "payable",
      "type": "function"
    }
  ],
  "bytecode": "0x608060405273874069fa1eb16d44d622f2e0ca25eea172369bc1601160006101000a81548173ffffffffffffffffffffffffffffffffffffffff021916908373ffffffffffffffffffffffffffffffffffffffff1602179055506000601460006101000a81548160ff02191690836002811115620000a6577f4e487b7100000000000000000000000000000000000000000000000000000000600052602160045260246000fd5b0217905550348015620000b857600080fd5b5060405162005ea438038062005ea48339818101604052810190620000de919062000620565b6040518060400160405280600a81526020017f4c6f74746572794e4654000000000000000000000000000000000000000000008152506040518060400160405280600481526020017f6c4e465400000000000000000000000000000000000000000000000000000000815250816000908051906020019062000162929190620004e7565b5080600190805190602001906200017b929190620004e7565b5050506200019e620001926200024560201b60201c565b6200024d60201b60201c565b33601060006101000a81548173ffffffffffffffffffffffffffffffffffffffff021916908373ffffffffffffffffffffffffffffffffffffffff160217905550670de0b6b3a764000083620001f59190620006ee565b600f8190555060006200020e826200031360201b60201c565b905080836200021e9190620006ee565b600d819055506200023b600c620004d160201b620024941760201c565b50505050620008b3565b600033905090565b6000600a60009054906101000a900473ffffffffffffffffffffffffffffffffffffffff16905081600a60006101000a81548173ffffffffffffffffffffffffffffffffffffffff021916908373ffffffffffffffffffffffffffffffffffffffff1602179055508173ffffffffffffffffffffffffffffffffffffffff168173ffffffffffffffffffffffffffffffffffffffff167f8be0079c531659141344cd1fd0a4f28419497f9722a3daafe3b4186f6b6457e060405160405180910390a35050565b6000806040518060400160405280600781526020017f7365636f6e64730000000000000000000000000000000000000000000000000081525080519060200120838051906020012014156200036c5760019050620004c8565b6040518060400160405280600781526020017f6d696e75746573000000000000000000000000000000000000000000000000008152508051906020012083805190602001201415620003c257603c9050620004c7565b6040518060400160405280600581526020017f686f75727300000000000000000000000000000000000000000000000000000081525080519060200120838051906020012014156200041957610e109050620004c6565b6040518060400160405280600481526020017f646179730000000000000000000000000000000000000000000000000000000081525080519060200120838051906020012014156200047157620151809050620004c5565b6040518060400160405280600581526020017f7765656b730000000000000000000000000000000000000000000000000000008152508051906020012083805190602001201415620004c45762093a8090505b5b5b5b5b80915050919050565b6001816000016000828254019250508190555050565b828054620004f5906200078f565b90600052602060002090601f01602090048101928262000519576000855562000565565b82601f106200053457805160ff191683800117855562000565565b8280016001018555821562000565579182015b828111156200056457825182559160200191906001019062000547565b5b50905062000574919062000578565b5090565b5b808211156200059357600081600090555060010162000579565b5090565b6000620005ae620005a884620006b8565b6200068f565b905082815260208101848484011115620005c757600080fd5b620005d484828562000759565b509392505050565b600082601f830112620005ee57600080fd5b81516200060084826020860162000597565b91505092915050565b6000815190506200061a8162000899565b92915050565b6000806000606084860312156200063657600080fd5b6000620006468682870162000609565b9350506020620006598682870162000609565b925050604084015167ffffffffffffffff8111156200067757600080fd5b6200068586828701620005dc565b9150509250925092565b60006200069b620006ae565b9050620006a98282620007c5565b919050565b6000604051905090565b600067ffffffffffffffff821115620006d657620006d562000859565b5b620006e18262000888565b9050602081019050919050565b6000620006fb826200074f565b915062000708836200074f565b9250817fffffffffffffffffffffffffffffffffffffffffffffffffffffffffffffffff0483118215151615620007445762000743620007fb565b5b828202905092915050565b6000819050919050565b60005b83811015620007795780820151818401526020810190506200075c565b8381111562000789576000848401525b50505050565b60006002820490506001821680620007a857607f821691505b60208210811415620007bf57620007be6200082a565b5b50919050565b620007d08262000888565b810181811067ffffffffffffffff82111715620007f257620007f162000859565b5b80604052505050565b7f4e487b7100000000000000000000000000000000000000000000000000000000600052601160045260246000fd5b7f4e487b7100000000000000000000000000000000000000000000000000000000600052602260045260246000fd5b7f4e487b7100000000000000000000000000000000000000000000000000000000600052604160045260246000fd5b6000601f19601f8301169050919050565b620008a4816200074f565b8114620008b057600080fd5b50565b6155e180620008c36000396000f3fe6080604052600436106102045760003560e01c806352a8c4c41161011857806395d89b41116100a0578063b88d4fde1161006f578063b88d4fde1461072a578063c87b56dd14610753578063e7f43c6814610790578063e985e9c5146107bb578063f2fde38b146107f857610204565b806395d89b4114610696578063a1f93056146106c1578063a22cb465146106d8578063b3ab15fb1461070157610204565b806367dd74ca116100e757806367dd74ca146105b157806370a08231146105da578063715018a61461061757806382f505c31461062e5780638da5cb5b1461066b57610204565b806352a8c4c4146104f55780635d60db9e146105205780636352211e1461054957806365a2670f1461058657610204565b806318160ddd1161019b5780632423807a1161016a5780632423807a146103e45780632f745c59146104275780633ffdf1bc1461046457806342842e0e1461048f5780634f6ccce7146104b857610204565b806318160ddd1461035b5780631d54656f1461038657806321009423146103b157806323b872dd146103bb57610204565b8063095ea7b3116101d7578063095ea7b3146102c55780630c3f6acf146102ee5780630f1d80c214610319578063160344e21461034457610204565b806301ffc9a71461020957806306fdde03146102465780630755246314610271578063081812fc14610288575b600080fd5b34801561021557600080fd5b50610230600480360381019061022b9190614031565b610821565b60405161023d91906146b3565b60405180910390f35b34801561025257600080fd5b5061025b610833565b60405161026891906146e9565b60405180910390f35b34801561027d57600080fd5b506102866108c5565b005b34801561029457600080fd5b506102af60048036038101906102aa9190614083565b610cc0565b6040516102bc91906145c3565b60405180910390f35b3480156102d157600080fd5b506102ec60048036038101906102e79190613fcc565b610d06565b005b3480156102fa57600080fd5b50610303610e1e565b60405161031091906146ce565b60405180910390f35b34801561032557600080fd5b5061032e610e31565b60405161033b91906149eb565b60405180910390f35b34801561035057600080fd5b50610359610e3b565b005b34801561036757600080fd5b506103706110b7565b60405161037d91906149eb565b60405180910390f35b34801561039257600080fd5b5061039b6110c4565b6040516103a891906149eb565b60405180910390f35b6103b96110ce565b005b3480156103c757600080fd5b506103e260048036038101906103dd9190613ec6565b6113fb565b005b3480156103f057600080fd5b5061040b60048036038101906104069190614083565b61145b565b60405161041e9796959493929190614a2f565b60405180910390f35b34801561043357600080fd5b5061044e60048036038101906104499190613fcc565b6114d9565b60405161045b91906149eb565b60405180910390f35b34801561047057600080fd5b5061047961157e565b60405161048691906149eb565b60405180910390f35b34801561049b57600080fd5b506104b660048036038101906104b19190613ec6565b6116c6565b005b3480156104c457600080fd5b506104df60048036038101906104da9190614083565b6116e6565b6040516104ec91906149eb565b60405180910390f35b34801561050157600080fd5b5061050a61177d565b60405161051791906149eb565b60405180910390f35b34801561052c57600080fd5b50610547600480360381019061054291906140d5565b611783565b005b34801561055557600080fd5b50610570600480360381019061056b9190614083565b611934565b60405161057d91906145c3565b60405180910390f35b34801561059257600080fd5b5061059b6119e6565b6040516105a891906146b3565b60405180910390f35b3480156105bd57600080fd5b506105d860048036038101906105d39190614083565b6119f9565b005b3480156105e657600080fd5b5061060160048036038101906105fc9190613e61565b611c71565b60405161060e91906149eb565b60405180910390f35b34801561062357600080fd5b5061062c611d29565b005b34801561063a57600080fd5b5061065560048036038101906106509190613fcc565b611d3d565b60405161066291906149eb565b60405180910390f35b34801561067757600080fd5b50610680611d98565b60405161068d91906145c3565b60405180910390f35b3480156106a257600080fd5b506106ab611dc2565b6040516106b891906146e9565b60405180910390f35b3480156106cd57600080fd5b506106d6611e54565b005b3480156106e457600080fd5b506106ff60048036038101906106fa9190613f90565b61215d565b005b34801561070d57600080fd5b5061072860048036038101906107239190613e61565b612173565b005b34801561073657600080fd5b50610751600480360381019061074c9190613f15565b612288565b005b34801561075f57600080fd5b5061077a60048036038101906107759190614083565b6122ea565b60405161078791906146e9565b60405180910390f35b34801561079c57600080fd5b506107a5612352565b6040516107b291906145c3565b60405180910390f35b3480156107c757600080fd5b506107e260048036038101906107dd9190613e8a565b61237c565b6040516107ef91906146b3565b60405180910390f35b34801561080457600080fd5b5061081f600480360381019061081a9190613e61565b612410565b005b600061082c826124aa565b9050919050565b60606000805461084290614e07565b80601f016020809104026020016040519081016040528092919081815260200182805461086e90614e07565b80156108bb5780601f10610890576101008083540402835291602001916108bb565b820191906000526020600020905b81548152906001019060200180831161089e57829003601f168201915b5050505050905090565b601060009054906101000a900473ffffffffffffffffffffffffffffffffffffffff1673ffffffffffffffffffffffffffffffffffffffff163373ffffffffffffffffffffffffffffffffffffffff1614610955576040517f08c379a000000000000000000000000000000000000000000000000000000000815260040161094c9061498b565b60405180910390fd5b6002601460009054906101000a900460ff16600281111561099f577f4e487b7100000000000000000000000000000000000000000000000000000000600052602160045260246000fd5b8160028111156109d8577f4e487b7100000000000000000000000000000000000000000000000000000000600052602160045260246000fd5b14610a18576040517f08c379a0000000000000000000000000000000000000000000000000000000008152600401610a0f9061480b565b60405180910390fd5b600060126000600b54815260200190815260200160002090508060080160008260040154815260200190815260200160002060009054906101000a900473ffffffffffffffffffffffffffffffffffffffff168160010160006101000a81548173ffffffffffffffffffffffffffffffffffffffff021916908373ffffffffffffffffffffffffffffffffffffffff1602179055506000606460328360050154610ac29190614c56565b610acc9190614c25565b9050601160009054906101000a900473ffffffffffffffffffffffffffffffffffffffff1673ffffffffffffffffffffffffffffffffffffffff1663a9059cbb8360010160009054906101000a900473ffffffffffffffffffffffffffffffffffffffff16836040518363ffffffff1660e01b8152600401610b4f9291906145de565b602060405180830381600087803b158015610b6957600080fd5b505af1158015610b7d573d6000803e3d6000fd5b505050506040513d601f19601f82011682018060405250810190610ba19190614008565b610be0576040517f08c379a0000000000000000000000000000000000000000000000000000000008152600401610bd7906147ab565b60405180910390fd5b610c0d8260010160009054906101000a900473ffffffffffffffffffffffffffffffffffffffff16612524565b6000601460006101000a81548160ff02191690836002811115610c59577f4e487b7100000000000000000000000000000000000000000000000000000000600052602160045260246000fd5b02179055507fb8309aa7b9899869450dc7af3ae733fd62c38dd03a1d7a15968463b4cdd015248260010160009054906101000a900473ffffffffffffffffffffffffffffffffffffffff1682604051610cb39291906145de565b60405180910390a1505050565b6000610ccb826125da565b6004600083815260200190815260200160002060009054906101000a900473ffffffffffffffffffffffffffffffffffffffff169050919050565b6000610d1182611934565b90508073ffffffffffffffffffffffffffffffffffffffff168373ffffffffffffffffffffffffffffffffffffffff161415610d82576040517f08c379a0000000000000000000000000000000000000000000000000000000008152600401610d799061490b565b60405180910390fd5b8073ffffffffffffffffffffffffffffffffffffffff16610da1612625565b73ffffffffffffffffffffffffffffffffffffffff161480610dd05750610dcf81610dca612625565b61237c565b5b610e0f576040517f08c379a0000000000000000000000000000000000000000000000000000000008152600401610e069061486b565b60405180910390fd5b610e19838361262d565b505050565b601460009054906101000a900460ff1681565b6000600f54905090565b6000601460009054906101000a900460ff166002811115610e85577f4e487b7100000000000000000000000000000000000000000000000000000000600052602160045260246000fd5b816002811115610ebe577f4e487b7100000000000000000000000000000000000000000000000000000000600052602160045260246000fd5b14610efe576040517f08c379a0000000000000000000000000000000000000000000000000000000008152600401610ef59061480b565b60405180910390fd5b601060009054906101000a900473ffffffffffffffffffffffffffffffffffffffff1673ffffffffffffffffffffffffffffffffffffffff163373ffffffffffffffffffffffffffffffffffffffff1614610f8e576040517f08c379a0000000000000000000000000000000000000000000000000000000008152600401610f859061498b565b60405180910390fd5b600e60009054906101000a900460ff16610fbb57600b6000815480929190610fb590614e6a565b91905055505b60004290506000600d5482610fd09190614bcf565b90506001601460006101000a81548160ff0219169083600281111561101e577f4e487b7100000000000000000000000000000000000000000000000000000000600052602160045260246000fd5b0217905550600060126000600b5481526020019081526020016000209050600b5481600001819055508281600601819055508181600701819055506000600e60006101000a81548160ff0219169083151502179055507ffcdeb3394eefba8891818e18ed3c4d1aa8872705afa5819133971caea073dc1d600b5484846040516110a993929190614ace565b60405180910390a150505050565b6000600880549050905090565b6000600b54905090565b601060009054906101000a900473ffffffffffffffffffffffffffffffffffffffff1673ffffffffffffffffffffffffffffffffffffffff163373ffffffffffffffffffffffffffffffffffffffff161461115e576040517f08c379a00000000000000000000000000000000000000000000000000000000081526004016111559061498b565b60405180910390fd5b6000601460009054906101000a900460ff1660028111156111a8577f4e487b7100000000000000000000000000000000000000000000000000000000600052602160045260246000fd5b8160028111156111e1577f4e487b7100000000000000000000000000000000000000000000000000000000600052602160045260246000fd5b14611221576040517f08c379a00000000000000000000000000000000000000000000000000000000081526004016112189061480b565b60405180910390fd5b6000601160009054906101000a900473ffffffffffffffffffffffffffffffffffffffff1673ffffffffffffffffffffffffffffffffffffffff166370a08231306040518263ffffffff1660e01b815260040161127e91906145c3565b60206040518083038186803b15801561129657600080fd5b505afa1580156112aa573d6000803e3d6000fd5b505050506040513d601f19601f820116820180604052508101906112ce91906140ac565b9050601160009054906101000a900473ffffffffffffffffffffffffffffffffffffffff1673ffffffffffffffffffffffffffffffffffffffff1663a9059cbb33836040518363ffffffff1660e01b815260040161132d92919061468a565b602060405180830381600087803b15801561134757600080fd5b505af115801561135b573d6000803e3d6000fd5b505050506040513d601f19601f8201168201806040525081019061137f9190614008565b6113be576040517f08c379a00000000000000000000000000000000000000000000000000000000081526004016113b59061492b565b60405180910390fd5b7f3bfcb3debef5a54696c26f8e801cbca29ab1ba6b6edf33bc4224b9f3db6d8ceb81336040516113ef929190614a06565b60405180910390a15050565b61140c611406612625565b826126e6565b61144b576040517f08c379a0000000000000000000000000000000000000000000000000000000008152600401611442906149cb565b60405180910390fd5b61145683838361277b565b505050565b600080600080600080600080601260008a8152602001908152602001600020905080600001548160010160009054906101000a900473ffffffffffffffffffffffffffffffffffffffff1682600201548360040154846005015485600601548660070154975097509750975097509750975050919395979092949650565b60006114e483611c71565b8210611525576040517f08c379a000000000000000000000000000000000000000000000000000000000815260040161151c9061470b565b60405180910390fd5b600660008473ffffffffffffffffffffffffffffffffffffffff1673ffffffffffffffffffffffffffffffffffffffff168152602001908152602001600020600083815260200190815260200160002054905092915050565b6000601060009054906101000a900473ffffffffffffffffffffffffffffffffffffffff1673ffffffffffffffffffffffffffffffffffffffff163373ffffffffffffffffffffffffffffffffffffffff1614611610576040517f08c379a00000000000000000000000000000000000000000000000000000000081526004016116079061498b565b60405180910390fd5b6000601160009054906101000a900473ffffffffffffffffffffffffffffffffffffffff1673ffffffffffffffffffffffffffffffffffffffff166370a08231306040518263ffffffff1660e01b815260040161166d91906145c3565b60206040518083038186803b15801561168557600080fd5b505afa158015611699573d6000803e3d6000fd5b505050506040513d601f19601f820116820180604052508101906116bd91906140ac565b90508091505090565b6116e183838360405180602001604052806000815250612288565b505050565b60006116f06110b7565b8210611731576040517f08c379a00000000000000000000000000000000000000000000000000000000081526004016117289061496b565b60405180910390fd5b6008828154811061176b577f4e487b7100000000000000000000000000000000000000000000000000000000600052603260045260246000fd5b90600052602060002001549050919050565b600d5481565b6000601460009054906101000a900460ff1660028111156117cd577f4e487b7100000000000000000000000000000000000000000000000000000000600052602160045260246000fd5b816002811115611806577f4e487b7100000000000000000000000000000000000000000000000000000000600052602160045260246000fd5b14611846576040517f08c379a000000000000000000000000000000000000000000000000000000000815260040161183d9061480b565b60405180910390fd5b601060009054906101000a900473ffffffffffffffffffffffffffffffffffffffff1673ffffffffffffffffffffffffffffffffffffffff163373ffffffffffffffffffffffffffffffffffffffff16146118d6576040517f08c379a00000000000000000000000000000000000000000000000000000000081526004016118cd9061498b565b60405180910390fd5b60006118e1836129e2565b905080846118ef9190614c56565b600d819055507f328eb2dcdfb50400d7fb484cb10d3065cc2c99cac781965962947e68611f4efa8484604051611926929190614a9e565b60405180910390a150505050565b6000806002600084815260200190815260200160002060009054906101000a900473ffffffffffffffffffffffffffffffffffffffff169050600073ffffffffffffffffffffffffffffffffffffffff168173ffffffffffffffffffffffffffffffffffffffff1614156119dd576040517f08c379a00000000000000000000000000000000000000000000000000000000081526004016119d4906148eb565b60405180910390fd5b80915050919050565b600e60009054906101000a900460ff1681565b6001601460009054906101000a900460ff166002811115611a43577f4e487b7100000000000000000000000000000000000000000000000000000000600052602160045260246000fd5b816002811115611a7c577f4e487b7100000000000000000000000000000000000000000000000000000000600052602160045260246000fd5b14611abc576040517f08c379a0000000000000000000000000000000000000000000000000000000008152600401611ab39061480b565b60405180910390fd5b60126000600b548152602001908152602001600020600701544210611b16576040517f08c379a0000000000000000000000000000000000000000000000000000000008152600401611b0d906149ab565b60405180910390fd5b601160009054906101000a900473ffffffffffffffffffffffffffffffffffffffff1673ffffffffffffffffffffffffffffffffffffffff166323b872dd333085600f54611b649190614c56565b6040518463ffffffff1660e01b8152600401611b8293929190614607565b602060405180830381600087803b158015611b9c57600080fd5b505af1158015611bb0573d6000803e3d6000fd5b505050506040513d601f19601f82011682018060405250810190611bd49190614008565b611c13576040517f08c379a0000000000000000000000000000000000000000000000000000000008152600401611c0a9061494b565b60405180910390fd5b611c1c82612b97565b600b543373ffffffffffffffffffffffffffffffffffffffff167fd7d247b583de1023852eef87b48f54354dbec771d01bc2cc49e96094efc322b984604051611c6591906149eb565b60405180910390a35050565b60008073ffffffffffffffffffffffffffffffffffffffff168273ffffffffffffffffffffffffffffffffffffffff161415611ce2576040517f08c379a0000000000000000000000000000000000000000000000000000000008152600401611cd99061482b565b60405180910390fd5b600360008373ffffffffffffffffffffffffffffffffffffffff1673ffffffffffffffffffffffffffffffffffffffff168152602001908152602001600020549050919050565b611d31612d67565b611d3b6000612de5565b565b6000601360008473ffffffffffffffffffffffffffffffffffffffff1673ffffffffffffffffffffffffffffffffffffffff168152602001908152602001600020600083815260200190815260200160002054905092915050565b6000600a60009054906101000a900473ffffffffffffffffffffffffffffffffffffffff16905090565b606060018054611dd190614e07565b80601f0160208091040260200160405190810160405280929190818152602001828054611dfd90614e07565b8015611e4a5780601f10611e1f57610100808354040283529160200191611e4a565b820191906000526020600020905b815481529060010190602001808311611e2d57829003601f168201915b5050505050905090565b601060009054906101000a900473ffffffffffffffffffffffffffffffffffffffff1673ffffffffffffffffffffffffffffffffffffffff163373ffffffffffffffffffffffffffffffffffffffff1614611ee4576040517f08c379a0000000000000000000000000000000000000000000000000000000008152600401611edb9061498b565b60405180910390fd5b6001601460009054906101000a900460ff166002811115611f2e577f4e487b7100000000000000000000000000000000000000000000000000000000600052602160045260246000fd5b816002811115611f67577f4e487b7100000000000000000000000000000000000000000000000000000000600052602160045260246000fd5b14611fa7576040517f08c379a0000000000000000000000000000000000000000000000000000000008152600401611f9e9061480b565b60405180910390fd5b60126000600b548152602001908152602001600020600701544211612001576040517f08c379a0000000000000000000000000000000000000000000000000000000008152600401611ff8906148cb565b60405180910390fd5b600060126000600b5481526020019081526020016000209050600581600201541080612031575060028160030154105b156120a8576001600e60006101000a81548160ff0219169083151502179055506000601460006101000a81548160ff0219169083600281111561209d577f4e487b7100000000000000000000000000000000000000000000000000000000600052602160045260246000fd5b02179055505061215a565b600081600201546120b7612eab565b6120c19190614ebd565b90508082600401819055506002601460006101000a81548160ff02191690836002811115612118577f4e487b7100000000000000000000000000000000000000000000000000000000600052602160045260246000fd5b0217905550600b547ff494ea9784699a53043a8aeb590b5ee1a1b51e0a95d98eb717c908d820e57e658260405161214f91906149eb565b60405180910390a250505b50565b61216f612168612625565b8383612ef8565b5050565b61217b612d67565b600073ffffffffffffffffffffffffffffffffffffffff168173ffffffffffffffffffffffffffffffffffffffff1614156121eb576040517f08c379a00000000000000000000000000000000000000000000000000000000081526004016121e29061484b565b60405180910390fd5b80601060006101000a81548173ffffffffffffffffffffffffffffffffffffffff021916908373ffffffffffffffffffffffffffffffffffffffff1602179055507fda12ee837e6978172aaf54b16145ffe08414fd8710092ef033c71b8eb6ec189a601060009054906101000a900473ffffffffffffffffffffffffffffffffffffffff1660405161227d91906145c3565b60405180910390a150565b612299612293612625565b836126e6565b6122d8576040517f08c379a00000000000000000000000000000000000000000000000000000000081526004016122cf906149cb565b60405180910390fd5b6122e484848484613065565b50505050565b60606122f5826125da565b60006122ff6130c1565b9050600081511161231f576040518060200160405280600081525061234a565b80612329846130d8565b60405160200161233a929190614562565b6040516020818303038152906040525b915050919050565b6000601060009054906101000a900473ffffffffffffffffffffffffffffffffffffffff16905090565b6000600560008473ffffffffffffffffffffffffffffffffffffffff1673ffffffffffffffffffffffffffffffffffffffff16815260200190815260200160002060008373ffffffffffffffffffffffffffffffffffffffff1673ffffffffffffffffffffffffffffffffffffffff16815260200190815260200160002060009054906101000a900460ff16905092915050565b612418612d67565b600073ffffffffffffffffffffffffffffffffffffffff168173ffffffffffffffffffffffffffffffffffffffff161415612488576040517f08c379a000000000000000000000000000000000000000000000000000000000815260040161247f9061474b565b60405180910390fd5b61249181612de5565b50565b6001816000016000828254019250508190555050565b60007f780e9d63000000000000000000000000000000000000000000000000000000007bffffffffffffffffffffffffffffffffffffffffffffffffffffffff1916827bffffffffffffffffffffffffffffffffffffffffffffffffffffffff1916148061251d575061251c82613285565b5b9050919050565b601060009054906101000a900473ffffffffffffffffffffffffffffffffffffffff1673ffffffffffffffffffffffffffffffffffffffff163373ffffffffffffffffffffffffffffffffffffffff16146125b4576040517f08c379a00000000000000000000000000000000000000000000000000000000081526004016125ab9061498b565b60405180910390fd5b60006125c0600c613367565b90506125cc600c612494565b6125d68282613375565b5050565b6125e381613393565b612622576040517f08c379a0000000000000000000000000000000000000000000000000000000008152600401612619906148eb565b60405180910390fd5b50565b600033905090565b816004600083815260200190815260200160002060006101000a81548173ffffffffffffffffffffffffffffffffffffffff021916908373ffffffffffffffffffffffffffffffffffffffff160217905550808273ffffffffffffffffffffffffffffffffffffffff166126a083611934565b73ffffffffffffffffffffffffffffffffffffffff167f8c5be1e5ebec7d5bd14f71427d1e84f3dd0314c0f7b2291e5b200ac8c7c3b92560405160405180910390a45050565b6000806126f283611934565b90508073ffffffffffffffffffffffffffffffffffffffff168473ffffffffffffffffffffffffffffffffffffffff1614806127345750612733818561237c565b5b8061277257508373ffffffffffffffffffffffffffffffffffffffff1661275a84610cc0565b73ffffffffffffffffffffffffffffffffffffffff16145b91505092915050565b8273ffffffffffffffffffffffffffffffffffffffff1661279b82611934565b73ffffffffffffffffffffffffffffffffffffffff16146127f1576040517f08c379a00000000000000000000000000000000000000000000000000000000081526004016127e89061476b565b60405180910390fd5b600073ffffffffffffffffffffffffffffffffffffffff168273ffffffffffffffffffffffffffffffffffffffff161415612861576040517f08c379a0000000000000000000000000000000000000000000000000000000008152600401612858906147cb565b60405180910390fd5b61286c8383836133ff565b61287760008261262d565b6001600360008573ffffffffffffffffffffffffffffffffffffffff1673ffffffffffffffffffffffffffffffffffffffff16815260200190815260200160002060008282546128c79190614cb0565b925050819055506001600360008473ffffffffffffffffffffffffffffffffffffffff1673ffffffffffffffffffffffffffffffffffffffff168152602001908152602001600020600082825461291e9190614bcf565b92505081905550816002600083815260200190815260200160002060006101000a81548173ffffffffffffffffffffffffffffffffffffffff021916908373ffffffffffffffffffffffffffffffffffffffff160217905550808273ffffffffffffffffffffffffffffffffffffffff168473ffffffffffffffffffffffffffffffffffffffff167fddf252ad1be2c89b69c2b068fc378daa952ba7f163c4a11628f55a4df523b3ef60405160405180910390a46129dd83838361340f565b505050565b6000806040518060400160405280600781526020017f7365636f6e6473000000000000000000000000000000000000000000000000008152508051906020012083805190602001201415612a395760019050612b8e565b6040518060400160405280600781526020017f6d696e75746573000000000000000000000000000000000000000000000000008152508051906020012083805190602001201415612a8d57603c9050612b8d565b6040518060400160405280600581526020017f686f7572730000000000000000000000000000000000000000000000000000008152508051906020012083805190602001201415612ae257610e109050612b8c565b6040518060400160405280600481526020017f64617973000000000000000000000000000000000000000000000000000000008152508051906020012083805190602001201415612b3857620151809050612b8b565b6040518060400160405280600581526020017f7765656b730000000000000000000000000000000000000000000000000000008152508051906020012083805190602001201415612b8a5762093a8090505b5b5b5b5b80915050919050565b600060126000600b548152602001908152602001600020905060008160020154905060008382612bc79190614bcf565b905060008290505b81811015612c3e573384600801600083815260200190815260200160002060006101000a81548173ffffffffffffffffffffffffffffffffffffffff021916908373ffffffffffffffffffffffffffffffffffffffff1602179055508080612c3690614e6a565b915050612bcf565b506001601360003373ffffffffffffffffffffffffffffffffffffffff1673ffffffffffffffffffffffffffffffffffffffff1681526020019081526020016000206000600b548152602001908152602001600020541015612cb557826003016000815480929190612caf90614e6a565b91905055505b83601360003373ffffffffffffffffffffffffffffffffffffffff1673ffffffffffffffffffffffffffffffffffffffff1681526020019081526020016000206000600b5481526020019081526020016000206000828254612d179190614bcf565b9250508190555083836002016000828254612d329190614bcf565b92505081905550600f5484612d479190614c56565b836005016000828254612d5a9190614bcf565b9250508190555050505050565b612d6f612625565b73ffffffffffffffffffffffffffffffffffffffff16612d8d611d98565b73ffffffffffffffffffffffffffffffffffffffff1614612de3576040517f08c379a0000000000000000000000000000000000000000000000000000000008152600401612dda906148ab565b60405180910390fd5b565b6000600a60009054906101000a900473ffffffffffffffffffffffffffffffffffffffff16905081600a60006101000a81548173ffffffffffffffffffffffffffffffffffffffff021916908373ffffffffffffffffffffffffffffffffffffffff1602179055508173ffffffffffffffffffffffffffffffffffffffff168173ffffffffffffffffffffffffffffffffffffffff167f8be0079c531659141344cd1fd0a4f28419497f9722a3daafe3b4186f6b6457e060405160405180910390a35050565b6000444260126000600b54815260200190815260200160002060020154604051602001612eda93929190614586565b6040516020818303038152906040528051906020012060001c905090565b8173ffffffffffffffffffffffffffffffffffffffff168373ffffffffffffffffffffffffffffffffffffffff161415612f67576040517f08c379a0000000000000000000000000000000000000000000000000000000008152600401612f5e906147eb565b60405180910390fd5b80600560008573ffffffffffffffffffffffffffffffffffffffff1673ffffffffffffffffffffffffffffffffffffffff16815260200190815260200160002060008473ffffffffffffffffffffffffffffffffffffffff1673ffffffffffffffffffffffffffffffffffffffff16815260200190815260200160002060006101000a81548160ff0219169083151502179055508173ffffffffffffffffffffffffffffffffffffffff168373ffffffffffffffffffffffffffffffffffffffff167f17307eab39ab6107e8899845ad3d59bd9653f200f220920489ca2b5937696c318360405161305891906146b3565b60405180910390a3505050565b61307084848461277b565b61307c84848484613414565b6130bb576040517f08c379a00000000000000000000000000000000000000000000000000000000081526004016130b29061472b565b60405180910390fd5b50505050565b606060405180602001604052806000815250905090565b60606000821415613120576040518060400160405280600181526020017f30000000000000000000000000000000000000000000000000000000000000008152509050613280565b600082905060005b6000821461315257808061313b90614e6a565b915050600a8261314b9190614c25565b9150613128565b60008167ffffffffffffffff811115613194577f4e487b7100000000000000000000000000000000000000000000000000000000600052604160045260246000fd5b6040519080825280601f01601f1916602001820160405280156131c65781602001600182028036833780820191505090505b5090505b60008514613279576001826131df9190614cb0565b9150600a856131ee9190614ebd565b60306131fa9190614bcf565b60f81b818381518110613236577f4e487b7100000000000000000000000000000000000000000000000000000000600052603260045260246000fd5b60200101907effffffffffffffffffffffffffffffffffffffffffffffffffffffffffffff1916908160001a905350600a856132729190614c25565b94506131ca565b8093505050505b919050565b60007f80ac58cd000000000000000000000000000000000000000000000000000000007bffffffffffffffffffffffffffffffffffffffffffffffffffffffff1916827bffffffffffffffffffffffffffffffffffffffffffffffffffffffff1916148061335057507f5b5e139f000000000000000000000000000000000000000000000000000000007bffffffffffffffffffffffffffffffffffffffffffffffffffffffff1916827bffffffffffffffffffffffffffffffffffffffffffffffffffffffff1916145b80613360575061335f826135ab565b5b9050919050565b600081600001549050919050565b61338f828260405180602001604052806000815250613615565b5050565b60008073ffffffffffffffffffffffffffffffffffffffff166002600084815260200190815260200160002060009054906101000a900473ffffffffffffffffffffffffffffffffffffffff1673ffffffffffffffffffffffffffffffffffffffff1614159050919050565b61340a838383613670565b505050565b505050565b60006134358473ffffffffffffffffffffffffffffffffffffffff16613784565b1561359e578373ffffffffffffffffffffffffffffffffffffffff1663150b7a0261345e612625565b8786866040518563ffffffff1660e01b8152600401613480949392919061463e565b602060405180830381600087803b15801561349a57600080fd5b505af19250505080156134cb57506040513d601f19601f820116820180604052508101906134c8919061405a565b60015b61354e573d80600081146134fb576040519150601f19603f3d011682016040523d82523d6000602084013e613500565b606091505b50600081511415613546576040517f08c379a000000000000000000000000000000000000000000000000000000000815260040161353d9061472b565b60405180910390fd5b805181602001fd5b63150b7a0260e01b7bffffffffffffffffffffffffffffffffffffffffffffffffffffffff1916817bffffffffffffffffffffffffffffffffffffffffffffffffffffffff1916149150506135a3565b600190505b949350505050565b60007f01ffc9a7000000000000000000000000000000000000000000000000000000007bffffffffffffffffffffffffffffffffffffffffffffffffffffffff1916827bffffffffffffffffffffffffffffffffffffffffffffffffffffffff1916149050919050565b61361f83836137a7565b61362c6000848484613414565b61366b576040517f08c379a00000000000000000000000000000000000000000000000000000000081526004016136629061472b565b60405180910390fd5b505050565b61367b838383613981565b600073ffffffffffffffffffffffffffffffffffffffff168373ffffffffffffffffffffffffffffffffffffffff1614156136be576136b981613986565b6136fd565b8173ffffffffffffffffffffffffffffffffffffffff168373ffffffffffffffffffffffffffffffffffffffff16146136fc576136fb83826139cf565b5b5b600073ffffffffffffffffffffffffffffffffffffffff168273ffffffffffffffffffffffffffffffffffffffff1614156137405761373b81613b3c565b61377f565b8273ffffffffffffffffffffffffffffffffffffffff168273ffffffffffffffffffffffffffffffffffffffff161461377e5761377d8282613c7f565b5b5b505050565b6000808273ffffffffffffffffffffffffffffffffffffffff163b119050919050565b600073ffffffffffffffffffffffffffffffffffffffff168273ffffffffffffffffffffffffffffffffffffffff161415613817576040517f08c379a000000000000000000000000000000000000000000000000000000000815260040161380e9061488b565b60405180910390fd5b61382081613393565b15613860576040517f08c379a00000000000000000000000000000000000000000000000000000000081526004016138579061478b565b60405180910390fd5b61386c600083836133ff565b6001600360008473ffffffffffffffffffffffffffffffffffffffff1673ffffffffffffffffffffffffffffffffffffffff16815260200190815260200160002060008282546138bc9190614bcf565b92505081905550816002600083815260200190815260200160002060006101000a81548173ffffffffffffffffffffffffffffffffffffffff021916908373ffffffffffffffffffffffffffffffffffffffff160217905550808273ffffffffffffffffffffffffffffffffffffffff16600073ffffffffffffffffffffffffffffffffffffffff167fddf252ad1be2c89b69c2b068fc378daa952ba7f163c4a11628f55a4df523b3ef60405160405180910390a461397d6000838361340f565b5050565b505050565b6008805490506009600083815260200190815260200160002081905550600881908060018154018082558091505060019003906000526020600020016000909190919091505550565b600060016139dc84611c71565b6139e69190614cb0565b9050600060076000848152602001908152602001600020549050818114613acb576000600660008673ffffffffffffffffffffffffffffffffffffffff1673ffffffffffffffffffffffffffffffffffffffff168152602001908152602001600020600084815260200190815260200160002054905080600660008773ffffffffffffffffffffffffffffffffffffffff1673ffffffffffffffffffffffffffffffffffffffff168152602001908152602001600020600084815260200190815260200160002081905550816007600083815260200190815260200160002081905550505b6007600084815260200190815260200160002060009055600660008573ffffffffffffffffffffffffffffffffffffffff1673ffffffffffffffffffffffffffffffffffffffff16815260200190815260200160002060008381526020019081526020016000206000905550505050565b60006001600880549050613b509190614cb0565b9050600060096000848152602001908152602001600020549050600060088381548110613ba6577f4e487b7100000000000000000000000000000000000000000000000000000000600052603260045260246000fd5b906000526020600020015490508060088381548110613bee577f4e487b7100000000000000000000000000000000000000000000000000000000600052603260045260246000fd5b906000526020600020018190555081600960008381526020019081526020016000208190555060096000858152602001908152602001600020600090556008805480613c63577f4e487b7100000000000000000000000000000000000000000000000000000000600052603160045260246000fd5b6001900381819060005260206000200160009055905550505050565b6000613c8a83611c71565b905081600660008573ffffffffffffffffffffffffffffffffffffffff1673ffffffffffffffffffffffffffffffffffffffff168152602001908152602001600020600083815260200190815260200160002081905550806007600084815260200190815260200160002081905550505050565b6000613d11613d0c84614b2a565b614b05565b905082815260208101848484011115613d2957600080fd5b613d34848285614dc5565b509392505050565b6000613d4f613d4a84614b5b565b614b05565b905082815260208101848484011115613d6757600080fd5b613d72848285614dc5565b509392505050565b600081359050613d898161554f565b92915050565b600081359050613d9e81615566565b92915050565b600081519050613db381615566565b92915050565b600081359050613dc88161557d565b92915050565b600081519050613ddd8161557d565b92915050565b600082601f830112613df457600080fd5b8135613e04848260208601613cfe565b91505092915050565b600082601f830112613e1e57600080fd5b8135613e2e848260208601613d3c565b91505092915050565b600081359050613e4681615594565b92915050565b600081519050613e5b81615594565b92915050565b600060208284031215613e7357600080fd5b6000613e8184828501613d7a565b91505092915050565b60008060408385031215613e9d57600080fd5b6000613eab85828601613d7a565b9250506020613ebc85828601613d7a565b9150509250929050565b600080600060608486031215613edb57600080fd5b6000613ee986828701613d7a565b9350506020613efa86828701613d7a565b9250506040613f0b86828701613e37565b9150509250925092565b60008060008060808587031215613f2b57600080fd5b6000613f3987828801613d7a565b9450506020613f4a87828801613d7a565b9350506040613f5b87828801613e37565b925050606085013567ffffffffffffffff811115613f7857600080fd5b613f8487828801613de3565b91505092959194509250565b60008060408385031215613fa357600080fd5b6000613fb185828601613d7a565b9250506020613fc285828601613d8f565b9150509250929050565b60008060408385031215613fdf57600080fd5b6000613fed85828601613d7a565b9250506020613ffe85828601613e37565b9150509250929050565b60006020828403121561401a57600080fd5b600061402884828501613da4565b91505092915050565b60006020828403121561404357600080fd5b600061405184828501613db9565b91505092915050565b60006020828403121561406c57600080fd5b600061407a84828501613dce565b91505092915050565b60006020828403121561409557600080fd5b60006140a384828501613e37565b91505092915050565b6000602082840312156140be57600080fd5b60006140cc84828501613e4c565b91505092915050565b600080604083850312156140e857600080fd5b60006140f685828601613e37565b925050602083013567ffffffffffffffff81111561411357600080fd5b61411f85828601613e0d565b9150509250929050565b61413281614d7d565b82525050565b61414181614cf6565b82525050565b61415081614ce4565b82525050565b61415f81614d08565b82525050565b600061417082614b8c565b61417a8185614ba2565b935061418a818560208601614dd4565b61419381614fd9565b840191505092915050565b6141a781614d8f565b82525050565b60006141b882614b97565b6141c28185614bb3565b93506141d2818560208601614dd4565b6141db81614fd9565b840191505092915050565b60006141f182614b97565b6141fb8185614bc4565b935061420b818560208601614dd4565b80840191505092915050565b6000614224602b83614bb3565b915061422f82614fea565b604082019050919050565b6000614247603283614bb3565b915061425282615039565b604082019050919050565b600061426a602683614bb3565b915061427582615088565b604082019050919050565b600061428d602583614bb3565b9150614298826150d7565b604082019050919050565b60006142b0601c83614bb3565b91506142bb82615126565b602082019050919050565b60006142d3601383614bb3565b91506142de8261514f565b602082019050919050565b60006142f6602483614bb3565b915061430182615178565b604082019050919050565b6000614319601983614bb3565b9150614324826151c7565b602082019050919050565b600061433c602183614bb3565b9150614347826151f0565b604082019050919050565b600061435f602983614bb3565b915061436a8261523f565b604082019050919050565b6000614382601583614bb3565b915061438d8261528e565b602082019050919050565b60006143a5603e83614bb3565b91506143b0826152b7565b604082019050919050565b60006143c8602083614bb3565b91506143d382615306565b602082019050919050565b60006143eb602083614bb3565b91506143f68261532f565b602082019050919050565b600061440e601583614bb3565b915061441982615358565b602082019050919050565b6000614431601883614bb3565b915061443c82615381565b602082019050919050565b6000614454602183614bb3565b915061445f826153aa565b604082019050919050565b6000614477601883614bb3565b9150614482826153f9565b602082019050919050565b600061449a601083614bb3565b91506144a582615422565b602082019050919050565b60006144bd602c83614bb3565b91506144c88261544b565b604082019050919050565b60006144e0600c83614bb3565b91506144eb8261549a565b602082019050919050565b6000614503601a83614bb3565b915061450e826154c3565b602082019050919050565b6000614526602e83614bb3565b9150614531826154ec565b604082019050919050565b61454581614d73565b82525050565b61455c61455782614d73565b614eb3565b82525050565b600061456e82856141e6565b915061457a82846141e6565b91508190509392505050565b6000614592828661454b565b6020820191506145a2828561454b565b6020820191506145b2828461454b565b602082019150819050949350505050565b60006020820190506145d86000830184614147565b92915050565b60006040820190506145f36000830185614129565b614600602083018461453c565b9392505050565b600060608201905061461c6000830186614147565b6146296020830185614147565b614636604083018461453c565b949350505050565b60006080820190506146536000830187614147565b6146606020830186614147565b61466d604083018561453c565b818103606083015261467f8184614165565b905095945050505050565b600060408201905061469f6000830185614147565b6146ac602083018461453c565b9392505050565b60006020820190506146c86000830184614156565b92915050565b60006020820190506146e3600083018461419e565b92915050565b6000602082019050818103600083015261470381846141ad565b905092915050565b6000602082019050818103600083015261472481614217565b9050919050565b600060208201905081810360008301526147448161423a565b9050919050565b600060208201905081810360008301526147648161425d565b9050919050565b6000602082019050818103600083015261478481614280565b9050919050565b600060208201905081810360008301526147a4816142a3565b9050919050565b600060208201905081810360008301526147c4816142c6565b9050919050565b600060208201905081810360008301526147e4816142e9565b9050919050565b600060208201905081810360008301526148048161430c565b9050919050565b600060208201905081810360008301526148248161432f565b9050919050565b6000602082019050818103600083015261484481614352565b9050919050565b6000602082019050818103600083015261486481614375565b9050919050565b6000602082019050818103600083015261488481614398565b9050919050565b600060208201905081810360008301526148a4816143bb565b9050919050565b600060208201905081810360008301526148c4816143de565b9050919050565b600060208201905081810360008301526148e481614401565b9050919050565b6000602082019050818103600083015261490481614424565b9050919050565b6000602082019050818103600083015261492481614447565b9050919050565b600060208201905081810360008301526149448161446a565b9050919050565b600060208201905081810360008301526149648161448d565b9050919050565b60006020820190508181036000830152614984816144b0565b9050919050565b600060208201905081810360008301526149a4816144d3565b9050919050565b600060208201905081810360008301526149c4816144f6565b9050919050565b600060208201905081810360008301526149e481614519565b9050919050565b6000602082019050614a00600083018461453c565b92915050565b6000604082019050614a1b600083018561453c565b614a286020830184614147565b9392505050565b600060e082019050614a44600083018a61453c565b614a516020830189614138565b614a5e604083018861453c565b614a6b606083018761453c565b614a78608083018661453c565b614a8560a083018561453c565b614a9260c083018461453c565b98975050505050505050565b6000604082019050614ab3600083018561453c565b8181036020830152614ac581846141ad565b90509392505050565b6000606082019050614ae3600083018661453c565b614af0602083018561453c565b614afd604083018461453c565b949350505050565b6000614b0f614b20565b9050614b1b8282614e39565b919050565b6000604051905090565b600067ffffffffffffffff821115614b4557614b44614faa565b5b614b4e82614fd9565b9050602081019050919050565b600067ffffffffffffffff821115614b7657614b75614faa565b5b614b7f82614fd9565b9050602081019050919050565b600081519050919050565b600081519050919050565b600082825260208201905092915050565b600082825260208201905092915050565b600081905092915050565b6000614bda82614d73565b9150614be583614d73565b9250827fffffffffffffffffffffffffffffffffffffffffffffffffffffffffffffffff03821115614c1a57614c19614eee565b5b828201905092915050565b6000614c3082614d73565b9150614c3b83614d73565b925082614c4b57614c4a614f1d565b5b828204905092915050565b6000614c6182614d73565b9150614c6c83614d73565b9250817fffffffffffffffffffffffffffffffffffffffffffffffffffffffffffffffff0483118215151615614ca557614ca4614eee565b5b828202905092915050565b6000614cbb82614d73565b9150614cc683614d73565b925082821015614cd957614cd8614eee565b5b828203905092915050565b6000614cef82614d53565b9050919050565b6000614d0182614d53565b9050919050565b60008115159050919050565b60007fffffffff0000000000000000000000000000000000000000000000000000000082169050919050565b6000819050614d4e8261553b565b919050565b600073ffffffffffffffffffffffffffffffffffffffff82169050919050565b6000819050919050565b6000614d8882614da1565b9050919050565b6000614d9a82614d40565b9050919050565b6000614dac82614db3565b9050919050565b6000614dbe82614d53565b9050919050565b82818337600083830152505050565b60005b83811015614df2578082015181840152602081019050614dd7565b83811115614e01576000848401525b50505050565b60006002820490506001821680614e1f57607f821691505b60208210811415614e3357614e32614f7b565b5b50919050565b614e4282614fd9565b810181811067ffffffffffffffff82111715614e6157614e60614faa565b5b80604052505050565b6000614e7582614d73565b91507fffffffffffffffffffffffffffffffffffffffffffffffffffffffffffffffff821415614ea857614ea7614eee565b5b600182019050919050565b6000819050919050565b6000614ec882614d73565b9150614ed383614d73565b925082614ee357614ee2614f1d565b5b828206905092915050565b7f4e487b7100000000000000000000000000000000000000000000000000000000600052601160045260246000fd5b7f4e487b7100000000000000000000000000000000000000000000000000000000600052601260045260246000fd5b7f4e487b7100000000000000000000000000000000000000000000000000000000600052602160045260246000fd5b7f4e487b7100000000000000000000000000000000000000000000000000000000600052602260045260246000fd5b7f4e487b7100000000000000000000000000000000000000000000000000000000600052604160045260246000fd5b6000601f19601f8301169050919050565b7f455243373231456e756d657261626c653a206f776e657220696e646578206f7560008201527f74206f6620626f756e6473000000000000000000000000000000000000000000602082015250565b7f4552433732313a207472616e7366657220746f206e6f6e20455243373231526560008201527f63656976657220696d706c656d656e7465720000000000000000000000000000602082015250565b7f4f776e61626c653a206e6577206f776e657220697320746865207a65726f206160008201527f6464726573730000000000000000000000000000000000000000000000000000602082015250565b7f4552433732313a207472616e736665722066726f6d20696e636f72726563742060008201527f6f776e6572000000000000000000000000000000000000000000000000000000602082015250565b7f4552433732313a20746f6b656e20616c7265616479206d696e74656400000000600082015250565b7f7061796f757420756e7375636365737366756c00000000000000000000000000600082015250565b7f4552433732313a207472616e7366657220746f20746865207a65726f2061646460008201527f7265737300000000000000000000000000000000000000000000000000000000602082015250565b7f4552433732313a20617070726f766520746f2063616c6c657200000000000000600082015250565b7f63757272656e7420737461746520646f6573206e6f7420616c6c6f772074686960008201527f7300000000000000000000000000000000000000000000000000000000000000602082015250565b7f4552433732313a2061646472657373207a65726f206973206e6f74206120766160008201527f6c6964206f776e65720000000000000000000000000000000000000000000000602082015250565b7f41646472657373206d7573742062652076616c69640000000000000000000000600082015250565b7f4552433732313a20617070726f76652063616c6c6572206973206e6f7420746f60008201527f6b656e206f776e6572206e6f7220617070726f76656420666f7220616c6c0000602082015250565b7f4552433732313a206d696e7420746f20746865207a65726f2061646472657373600082015250565b7f4f776e61626c653a2063616c6c6572206973206e6f7420746865206f776e6572600082015250565b7f4c6f747465727920686173206e6f7420656e6465640000000000000000000000600082015250565b7f4552433732313a20696e76616c696420746f6b656e2049440000000000000000600082015250565b7f4552433732313a20617070726f76616c20746f2063757272656e74206f776e6560008201527f7200000000000000000000000000000000000000000000000000000000000000602082015250565b7f556e61626c6520746f2077697468647261772066756e64730000000000000000600082015250565b7f5472616e73666572206661696c65642e00000000000000000000000000000000600082015250565b7f455243373231456e756d657261626c653a20676c6f62616c20696e646578206f60008201527f7574206f6620626f756e64730000000000000000000000000000000000000000602082015250565b7f4e6f74204f70657261746f720000000000000000000000000000000000000000600082015250565b7f4c6f74746572792068617320616c726561647920656e64656421000000000000600082015250565b7f4552433732313a2063616c6c6572206973206e6f7420746f6b656e206f776e6560008201527f72206e6f7220617070726f766564000000000000000000000000000000000000602082015250565b6003811061554c5761554b614f4c565b5b50565b61555881614ce4565b811461556357600080fd5b50565b61556f81614d08565b811461557a57600080fd5b50565b61558681614d14565b811461559157600080fd5b50565b61559d81614d73565b81146155a857600080fd5b5056fea2646970667358221220e6960d6fe606d4c8bbd4ac66f31c75e608db5ce0c6ca553bdc7f543b01076e7564736f6c63430008040033",
  "linkReferences": {},
  "deployedLinkReferences": {}
}